S00C0000555352322E73726563EC
S1130000F9C0000018C1000016C1000014C10000AE
S113001012C1000010C100000EC100000CC100009C
S11300200AC1000008C1000006C1000004C10000AC
S113003002C1000000C10000FEC00000FCC00000BE
S1130040FAC000000C9450140C947D140C94AA145F
S11300500C942314F0C00000EEC00000ECC00000BB
S1130060EAC00000E8C00000E6C00000E4C00000F0
S1130070E2C00000E0C00000DEC00000DCC0000000
S11300800C9404150C9431150C945E150C94D7142F
S1130090DBC30000D0C00000CEC00000CCC0000014
S11300A0CAC00000C8C000000C94B8150C94E51533
S11300B00C9412160C948B15BEC000000C946C1694
S11300C00C9499160C94C6160C943F16B4C00000F8
S11300D0B2C00000B0C00000AEC00000ACC0000060
S11300E0AAC000000C94320E0C943C0E0C94280E02
S11300F00C94A70D0C94D20D0C94460E0C947C0D0C
S11301000C94FD0D98C0000096C0000094C000003F
S113011092C0000090C000000C945A0E0C94500E33
S11301200C94640E0C946E0E0C94780E0C94820E47
S11301300C948C0EFF0A260B1A0B330B1A0BF20AC3
S11301400C0B1A0B1A0B1A0B1A0B1A0BC60A1A0BE6
S11301501A0B1A0B1A0B1A0B1A0B520B1A0B1A0B3B
S11301608B0B07634236B79BD8A71A39685618AE6B
S1130170BAAB558C1D3CB7CC5763BD6DEDFD753ED8
S1130180F6177231BF000000803F08000000BE92E5
S11301902449123EABAAAA2ABECDCCCC4C3E0000C8
S11301A00080BEABAAAAAA3E00000000BF00000067
S11301B0803F0000000000084178D3BB4387D1137F
S11301C03D190E3CC3BD4282AD2B3E68EC8276BE27
S11301D0D98FE1A93E4C80EFFFBE01C4FF7F3F00F1
S11301E00000000004030302020100FFFEFDFCFB0B
S11301F0F9F7F4EF11241FBECFEFD1E8DEBFCDBF76
S113020000E00CBF12E0A0E0B2E0ECE5FCE300E0AB
S11302100BBF02C007900D92A231B107D9F726E0B7
S1130220A2E1B2E001C01D92A93AB207E1F70E942F
S113023021180C942C1EE4CE0E94CB13209116029C
S11302402223D9F040919E0630E020911602642FBB
S1130250732F0E949E1BFB018FEF9FEF642F732F60
S11302600E949E1B30E0629FC001639F900D729FAD
S1130270900D11248E0F9F1F089560919E0670E0CB
S11302800E949E1BCB0108950E94D0130E94F41378
S1130290109212021092130210921402109215027C
S11302A010921802109217020C9401140E94DE138B
S11302B0109216020895E8DFF9DF0C94E5130F930A
S11302C01F93CF93DF93EC010E94CB138C01BE01EB
S11302D080E090E020919E0630E040E050E00E94F3
S11302E08F1BDC01CB01A80160E070E0480F591FAF
S11302F06A1F7B1F409312025093130260931402EF
S113030070931502409112025091130260911402ED
S113031070911502AB016627772740931202509320
S113032013026093140270931502409112025091CB
S11303301302609114027091150241155105610573
S1130340710591F0409112025091130260911402D0
S1130350709115020196080F191F1093180200934B
S113036017020E94D01308C0080F191F1093180217
S1130370009317020E94D7138091170290911802DC
S11303808436910530F48C599F4F909318028093D2
S1130390170280911702909118020E94E913DF91CD
S11303A0CF911F910F910895109216020E94031489
S11303B080939E0608958091120290911302A09159
S11303C01402B09115020097A105B105C9F08091FE
S11303D0120290911302A0911402B0911502019798
S11303E0A109B1098093120290931302A0931402FD
S11303F0B09315020097A105B10511F40E94D7131B
S1130400809116028F5F8093160290919E06891741
S113041048F010921602E0911902F0911A023097F6
S113042009F0199508950E94D013E0911B02F091F0
S11304301C02309709F01995089590931A0280933D
S11304401902089590931C0280931B020895EF9261
S1130450FF920F931F93CF93DF937C018B01EA01EB
S1130460209739F0F80161918F01C7014FD021978E
S1130470C9F780E0DF91CF911F910F91FF90EF902A
S11304800895EF92FF920F931F93CF93DF937C0114
S11304908B01EA01209739F0C7013FD0F80181931D
S11304A08F012197C9F780E0DF91CF911F910F91C0
S11304B0FF90EF900895CF93DF931F92CDB7DEB7EF
S11304C08091A9059091AA05E091A505F091A60552
S11304D0BE016F5F7F4F19958981082E000C990B1F
S11304E00F90DF91CF910895682F8091A905909185
S11304F0AA05E091A705F091A805199599231CF088
S113050081E090E008958FEF9FEF0895FC019081C2
S113051095FFFDCF668380E00895FC0190819923C7
S1130520ECF7868108954F925F926F927F928F923B
S11305309F92AF92BF92CF92DF92EF92FF920F936E
S11305401F93CF93DF93EC016A017B0128013901EA
S1130550689412F876946794579447941694D1F754
S1130560888181FD0EC048015901072E73E1B694BC
S1130570A794979487947A95D1F7702DD301C201EB
S113058015C0D901C801689413F8B695A795979535
S113059087951694D1F748015901072E74E1B69452
S11305A0A794979487947A95D1F7702D8C159D050F
S11305B0AE05BF0578F1C814D904EA04FB0460F160
S11305C0888181FF10C0A7019601220F331F441FA9
S11305D0551FC301B2010E94C51BDA01C90101976D
S11305E0A109B10913C0C901B801689413F896951B
S11305F08795779567951694D1F7A70196010E9480
S1130600C51BDA01C9010197A109B1099D838C8336
S113061081E003C080E001C080E0DF91CF911F91B1
S11306200F91FF90EF90DF90CF90BF90AF909F908D
S11306308F907F906F905F904F9008950F931F93CA
S1130640CF93DF93EC018B01803C910521F462E0B0
S113065080E072D406C0883C910519F461E081E021
S11306606BD48A818F738A83F801268135818481D2
S11306709A81482F4370440F997F942B9A839981D0
S11306808470880F880F9B7F892B89838A818F7C54
S1130690832B8A839A81977F822F880F880F880FF4
S11306A0892B8A83408151816281738100E012E148
S11306B02AE730E0CE0137DF9981986099839981E8
S11306C090619983DF91CF911F910F910895CF93FA
S11306D0DF93EB0122DF8883DF91CF91089516CF5A
S11306E008950F931F93CF93DF93CDB7DEB727976A
S11306F00FB6F894DEBF0FBECDBF08EC10E0109328
S1130700AA050093A9058FE693E09093A80580932A
S1130710A70587E693E09093A6058093A505EAE0F4
S1130720F2E084818D8385818E8386818F838081AD
S11307309181A281B38189839A83AB83BC83BE01F7
S11307406F5F7F4F88EC90E079DF6BE572E084E7C0
S113075092E00E947E1CF801818180688183279643
S11307600FB6F894DEBF0FBECDBFDF91CF911F91BE
S11307700F910895FF920F931F93CF93DF938C01F2
S1130780F62EC62FD0E0AE01B80188EC90E05FDE13
S11307908111F9CF8F2DDF91CF911F910F91FF9090
S11307A00895DC0180911E0290911F02891728F0A0
S11307B0282F291B20931D0205C02CE9280F291B73
S11307C020931D0290911D02992331F19C3940F030
S11307D080931F028CE980931D026C3938F403C0A6
S11307E0961708F4692F611102C018C06CE9909142
S11307F01F02262FE92FF0E0E05EFD4F30813D938C
S113080021509B3911F09F5F01C090E02111F2CF7C
S113081090931F02862F089580E0089580E0089544
S1130820CF93DF931F92CDB7DEB761E0CE0101967F
S1130830B8DF882319F0898190E002C08FEF9FEF21
S11308400F90DF91CF9108951F920F920FB60F92E0
S113085011240BB60F922F933F934F935F936F9393
S11308607F938F939F93AF93BF93EF93FF93CF9314
S1130870DF931F92CDB7DEB741E050E0BE016F5F5A
S11308807F4F88EC90E0FDDDF89480911E02E82F04
S1130890F0E0E05EFD4F998190838B3919F410925A
S11308A01E0203C08F5F80931E0278940F90DF9125
S11308B0CF91FF91EF91BF91AF919F918F917F91D4
S11308C06F915F914F913F912F910F900BBE0F90BD
S11308D00FBE0F901F90189504C0615071098109D3
S11308E091096115710581059105B9F708950F9373
S11308F01F93CF93DF938C01CBEAD5E081E7DE0130
S11309001D928A95E9F7D8011796ED91FC911897F5
S113091091E7DE0101900D929A95E1F72E813F81D6
S11309202830310559F484E08CB9F8018781908529
S1130930DC016C916B500A961DDF3BC02F3F3F4F8B
S1130940C1F580E489B94091B3055091B405ECE157
S1130950F6E068E376E0A0E0B0E091E080E0228198
S113096033812417350711F4A92FB82F3496E617CD
S1130970F707A9F7AB2BE9F4F801A781B0858091BB
S1130980310390913203FC01EE0FFF1FEE0FFF1FA6
S1130990E45EF94F2C912E5FA20FB11D2C9130E033
S11309A0318320835383428301969093320380934F
S11309B0310362E070E080E090E08EDFDF91CF9160
S11309C01F910F91089508950E943613BC0180E091
S11309D090E00E94D1182FE632E143E85AE30C94E8
S11309E05F1908959B01215031091216130684F4EE
S11309F0FC01E60FF71FDC0180E090E04C9152917E
S1130A005D93408301962150310982179307B4F313
S1130A100895CF92DF92EF92FF920F931F93CF939B
S1130A20DF936B018A01009799F0EB01E0E0F0E0BD
S1130A300F2EFAE0EF2EF12CF02D3196B7010E9423
S1130A40B21B805D8993862F972F0097B1F702C060
S1130A50E0E0F0E0E017F1075CF4EC0DFD1D960119
S1130A60200F311F80E38193E217F307E1F701C000
S1130A708F01B801C601B6DFE601C00FD11F18828D
S1130A80C801DF91CF911F910F91FF90EF90DF90FC
S1130A90CF9008952F923F924F925F926F927F92E0
S1130AA08F929F92AF92BF92CF92DF92EF92FF927A
S1130AB00F931F93CF93DF934B015C018A01E901EC
S1130AC00E94A0186B017C0140E050E0B801C6010F
S1130AD0A0DF1C01209791F1F801E80FF91F8EE2C5
S1130AE08083BE010D2E000C880B990B0E94D31835
S1130AF09B01AC0160E070E080E291E40E94C219C5
S1130B002B013C01B601DD0C880B990B0E94D31814
S1130B109B01AC01C501B4010E943B182FEF221ABE
S1130B20320A020D131DA30192010E945F190E9453
S1130B30A018DC01CB01AE01B8016BDFDF91CF91CE
S1130B401F910F91FF90EF90DF90CF90BF90AF90E7
S1130B509F908F907F906F905F904F903F902F90D9
S1130B6008951F93CF93DF93CDB7DEB7CB54D1094C
S1130B700FB6F894DEBF0FBECDBF8FEF8D8350DE6E
S1130B80182F8F3F09F488C0E091300391E09E0F45
S1130B9090933003F0E0E454FD4F80831D3019F04E
S1130BA0943709F075C06091300361508CEB92E08A
S1130BB025D165E0CE010196DDDD1092300368C0D9
S1130BC080E489B984E082BB8CB98091310390912F
S1130BD03203009739F481E090E0909334038093DA
S1130BE0330307C01816190624F490933403809332
S1130BF03303EADE24E030E0AE01485C5F4F4ADFB5
S1130C0038ADE8E3F6E0308329AD21839AAD9283D1
S1130C108BAD83831E8248E04F83388729879A8768
S1130C208B87609133037091340316161706F4F41E
S1130C30ACE1B6E0FE0136969B01220F331F220F72
S1130C40331F2E0F3F1F8C9111969C911197968301
S1130C50878312968C91129713969C911397908781
S1130C60818714963496E217F30769F7FB01EE0FB8
S1130C70FF1FEE0FFF1FEC0FFD1F8EEF8487660F23
S1130C80660F695FCE01069675DD1092300309C0C8
S1130C90133609F495CF05C080913003843709F4E5
S1130CA082CFC55BDF4F0FB6F894DEBF0FBECDBF5A
S1130CB0DF91CF911F9108954F925F926F927F922F
S1130CC08F92AF92CF92EF920F931F93CF93DF93B4
S1130CD0CDB7DEB7A9E8B0E0AE19B109FD01E95C12
S1130CE0FC4F3F01EE2079F0D80144244A944E0C85
S1130CF0512C9FEF491A590A040D151D9D9191938A
S1130D00A017B107D9F7423061F43BE03E0DD3019F
S1130D1040918506509186065E934E9340E050E8DC
S1130D2026C0D301189731E13E0DE9E7F6E0908142
S1130D309C93918111969C931197928112969C9306
S1130D401297938113969C931397948114969C9372
S1130D501497958115969C931597968116969C9356
S1130D601697978117969C93179740E050EC823022
S1130D7059F4FB0180819181FD01929382933F019B
S1130D80CA01806498600FC03D01F8E06F1A7108D1
S1130D903A5F88E0FB01D30101900D928A95E1F757
S1130DA0CA0180649C604EEF5AECF3013297518380
S1130DB0408331972083C11002C0816001C08162E9
S1130DC0F301359791838083D30116973C93B093B5
S1130DD03F03A0933E03482D6A2D87E393E00E94CE
S1130DE03C12DF91CF911F910F91EF90CF90AF9074
S1130DF08F907F906F905F904F9008958F92AF92F5
S1130E00CF92EF920F931F93CF93DF931F921F9272
S1130E10CDB7DEB72FEF3FEF3A8329832091350317
S1130E2030913603A9014F5F5F4F509336034093CF
S1130E303503812C6894AA24A1F8C12CE62E8C01D8
S1130E4042E0BE016F5F7F4F82E036DF0F900F906C
S1130E50DF91CF911F910F91EF90CF90AF908F9032
S1130E60089586E00C9468110895CF93DF9300D021
S1130E7000D0CDB7DEB745D036D0BAD18BD58111ED
S1130E80FFCF789488E090E09A8389838EEF9AEC80
S1130E909C838B838CE08D831E82BE016F5F7F4FAA
S1130EA083E50E94950FBE016D5F7F4F80E50E9430
S1130EB0950FBE016B5F7F4F80E00E94950FBE01CE
S1130EC06A5F7F4F84E00E94950F62E080E00E9499
S1130ED07812C7DF26960FB6F894DEBF0FBECDBFDB
S1130EE0DF91CF9108958DB18E7F9EB15E9A569A0F
S1130EF0A29A9A9A95609EB984608DB90895F1CBAF
S1130F000895CF93DF931F92CDB7DEB78FEF809311
S1130F106400809365008FB78983F89489815F9317
S1130F2050E85093610050E0509361005F918FBF8F
S1130F300F90DF91CF910895CF93DF931F92CDB798
S1130F40DEB79FB79983F8949981823040F4E82FF3
S1130F50F0E0EC59FF4F60958081682360839FBF68
S1130F600F90DF91CF910895CF93DF931F92CDB768
S1130F70DEB79FB79983F8949981823038F4E82FCB
S1130F80F0E0EC59FF4F8081682B60839FBF0F9086
S1130F90DF91CF9108958091C603882319F081E0F1
S1130FA08093700608951F93CF93DF931F92CDB75C
S1130FB0DEB780913C0690913D06019690933D06E4
S1130FC080933C068FB78983F89419818091C50377
S1130FD08F3FE9F190E0FC01EE0FFF1F9C01220F0F
S1130FE0331F220F331F220F331FE20FF31FE25C64
S1130FF0F94F218521112BC0FC01EE0FFF1F880F33
S1131000991F880F991F880F991FE80FF91FE25C39
S1131010F94F80819181A281B38120913C06309166
S11310203D062A173B0799F44AD98091C50390E0FD
S1131030FC01EE0FFF1F880F991F880F991F880F5F
S1131040991FE80FF91FE25CF94F81E081871FBF08
S11310500F90DF91CF911F9108950F931F93CF931A
S1131060DF93C82F8F3F09F460C000913C061091B4
S11310703D06E2D840913C0650913D060417150701
S1131080A1F7D0E060E070E0FE01EE0FFF1F9E01CB
S1131090220F331F220F331F220F331FE20FF31FC0
S11310A0E25CF94FBA0155274427A0E0B0E0482B91
S11310B0592B6A2B7B2B80819181A281B381841B64
S11310C0950BA60BB70B8F3F2FEF9207A2072FE7C5
S11310D0B20738F59E01220F331F220F331F220F50
S11310E0331FFE01EE0FFF1FE20FF31FE25CF94F07
S11310F0218521111BC0009721E0A207B105B0F49E
S1131100DED8CE01880F991FCC0FDD1FCC0FDD1F59
S1131110CC0FDD1FC80FD91FC25CD94F81E089876E
S113112005C081E08093700601C0AED8DF91CF91F5
S11311301F910F91089580917006882309F457C078
S1131140109270068091C603882309F450C08091E0
S1131150C4038F3F59F48091C3038F3F39F48091C6
S1131160C5038093C3038093C40315C02091C503B2
S11311708091C30390E0FC01EE0FFF1F880F991FBD
S1131180880F991F880F991FE80FF91FE25CF94F28
S113119020872093C3038091C50390E0FC01EE0FE8
S11311A0FF1F880F991F880F991F880F991FE80F39
S11311B0F91FE25CF94F80858093C5032091C30336
S11311C030E0F901EE0FFF1F220F331F220F331FF0
S11311D0220F331FE20FF31FE25CF94F9FEF90875A
S11311E09091C60391509093C603911136CF089500
S11311F01092C6031092700610923D0610923C069F
S11312008FEF8093C5038093C4038093C303EEE3FD
S1131210F6E020E736E08087158214823A96E217DA
S1131220F307C9F71092C20383ED97E006D98BEC5C
S113123097E008D9B9C808950F931F93CF93DF930C
S11312401F921F92CDB7DEB78FB78A83F8941A81A5
S113125072DF1FBF1FEF012F37C08FB78983F89448
S113126029818091C40390E0DC01AA0FBB1F880F81
S1131270991F880F991F880F991FA80FB91FA25C87
S1131280B94F18969C9118971496ED91FC91159767
S113129016964D915C91179718961C93189715966E
S11312A01C921E92149717961C921E9216971996CA
S11312B01C929093C4039F3F11F40093C3032FBF68
S11312C0309711F0CA0119958091C4038F3F29F614
S11312D00F900F90DF91CF911F910F91089580E0AF
S11312E00895AACF0895CF93DF9387EC93E0B0D00D
S11312F0CCECD3E088ED93E099838883BE0187EC3E
S113130093E0ADD083E694E09D838C8360ED73E03D
S113131087EC93E0A4D08EEE94E09987888764EDFF
S113132073E087EC93E09BD0DF91CF91089560E068
S113133070E087EC93E0B8C00895009721F0BC01F9
S113134087EC93E08CC008958F929F92AF92BF92E6
S1131350CF92DF92EF92FF920F931F93CF93DF937D
S11313601F92CDB7DEB72FB72983F8948980DC01AB
S113137014962C91222309F456C07A01962E5C010E
S1131380FC0100811181452BE1F00115110509F4DF
S11313904DC0680101C08901D70112966D917C91FD
S11313A01397ED91FC91D8018D919C911995811120
S11313B009C0F8012281338168012115310559F7EB
S11313C035C068010115110599F1911031C0D5019D
S11313D08D919C9111970817190731F4F8018281B6
S11313E093818D939C9308C0D80112968D919C9102
S11313F01397F60193838283D50112968D919C9164
S113140013970817190721F41396DC92CE921297BA
S1131410F50184818150848380819181892B41F4F9
S11314201382128205C000E010E002C000E010E068
S11314308FBEC8010F90DF91CF911F910F91FF9044
S1131440EF90DF90CF90BF90AF909F908F900895D2
S1131450FC01118210821382128214820895CF93A8
S1131460DF931F92CDB7DEB7FC018FB78983F89461
S113147099818481811103C07183608306C0A28134
S1131480B38113967C936E93129773836283DB010B
S113149013961C921E92129784818F5F84839FBF40
S11314A00F90DF91CF910895AB0160E04DCF089587
S11314B004C06150710981099109611571058105A3
S11314C09105B9F708950F931F93CF93809141012C
S11314D08F718830A1F481E080934F0189E080937B
S11314E04201C3E00FE411E0F801808180FD07C0F0
S11314F063E970E080E090E0DBDFC150A9F7CF91B1
S11315001F910F9108951F93CF93DF931F92CDB72F
S1131510DEB7182F809198068F3051F51F3009F4EB
S113152038C110929C0688EB9EE0E1D28FB7898384
S1131530F89499817894E9E3F1E080818D7F808348
S113154080919C068823E1F39FBF8FEF80934F0126
S113155088E480934E01EDE4F1E08081846080832F
S1131560183011F0133021F488E08093980611C1EB
S1131570812F90E0FC013397E731F10508F05AC060
S11315808827E656FF4F8F4F0C94E71B83E0809328
S11315904201EDE4F1E080818B7F80830E94671C2F
S11315A080936D01EEE6F1E080819770887F892B4E
S11315B080838FEF80934F0180E880934E0162E037
S11315C070E080E090E074DFE9E3F1E08081826024
S11315D080836FE270E080E090E06ADF8FE08093C8
S11315E09806D7C080919806883021F188E08093CE
S11315F0420162E070E080E090E05ADF1BC080911D
S113160098068830B9F083E08093420162E070E08C
S113161080E090E04DDF0EC080919806883049F05C
S113162018F4863039F409C0863139F0893111F45F
S113163004C049DFE1E4F1E0A6C089E080934201FF
S113164062E070E080E090E033DFF4CF80919806B0
S1131650883019F0893071F302C035DFEBCF84E0B4
S113166080934201E7CF80919806893041F018F4C5
S1131670883071F0DFCF863111F08931D9F686E0F8
S11316808093420162E070E080E090E011DFD2CF0D
S11316901ADF86E08093420162E070E080E090E02F
S11316A007DFC8CF80919806883091F018F486300F
S11316B0C9F0C0CF893019F0893109F0BBCF86E178
S11316C08093420162E070E080E090E0F1DEB2CF0E
S11316D0FADE86E18093420162E070E080E090E00F
S11316E0E7DEA8CF89E08093420162E070E080E009
S11316F090E0DEDE809141018F71809398068930FD
S113170009F047C086E18093420162E070E080E026
S113171090E0CEDE8FCF80919806883051F118F496
S1131720863079F087CF893019F0863151F082CF35
S113173089E18093420162E070E080E090E0B8DEED
S113174079CF89E08093420162E070E080E090E02C
S1131750AFDE809141018F71809398068930C9F47E
S113176089E18093420162E070E080E090E0A0DED5
S113177061CFA9DE89E18093420162E070E080E0FC
S113178090E096DE57CF80818F71809398068F31D9
S1131790D1F30F90DF91CF911F910895CF93DF93F1
S11317A080917106882319F180919D0681111FC0D3
S11317B08091790590917A05892B41F48BE8B7DD06
S11317C090937A0580937905892B89F0109271069C
S11317D0CCE4D1E088818F77888363E070E080E097
S11317E090E066DE88818068888386E18CDE809163
S11317F07606882341F060E070E082E796E054DEEC
S1131800009709F025D580919D06823009F487D58B
S1131810DF91CF91089504C0615071098109910944
S11318206115710581059105B9F70895FF920F932C
S11318301F93CF93DF9386E066DE8630E1F7E5E51C
S1131840F1E080818F77808310924E016894FF24A9
S1131850F3F8C0E0D0E006E411E0F8019081CC0F89
S1131860DD1FCC0FDD1F9076292F30E036952795AC
S1131870329522952F7023273F702327C22BD32B19
S113188062E070E080E090E0C6DFFA94F110E5CF0A
S113189083E039DE8FEF80934F0188E480934E011B
S11318A0CE010E946A1CDF91CF911F910F91FF908E
S11318B00895FF920F931F93CF93DF93F82EC9E3FC
S11318C0D1E088818D7F888361E471E080E090E0DD
S11318D0A2DF88818E7F888362E070E080E090E000
S11318E09ADF88818160888366E870E080E090E018
S11318F092DF809141018F71CAE001E411E00AC0D6
S113190066E870E080E090E086DFF80180818F7106
S1131910C150C9F18830A1F78093980687DF0E94EF
S1131920671C80936D01EEE6F1E080819770887FFB
S1131930892B8083808180628083ECE4F1E0808164
S11319408068808388E480934E018FEF80935601F2
S1131950EDE4F1E080818C7F82608083AAE4B1E0D1
S11319608C91807F83608C93808188608083808168
S113197084608083F11030D27DD210929D06109243
S1131980710680E001C085E8DF91CF911F910F912E
S1131990FF900895CF92DF92EF92FF920F931F93DF
S11319A0CF93DF9314BE80E180933501809334019B
S11319B0809333018093320192DC81116DC060E425
S11319C081E0BADAC9E3D1E08881816088838881C3
S11319D08D7F88836BEF71E080E090E01CDF88816D
S11319E08E7F888362E070E080E090E014DF88817D
S11319F08160888366E870E080E090E00CDF80918D
S1131A0041018F71CAE001E411E00BC066E870E0A7
S1131A1080E090E000DFF80180818F71C15009F40B
S1131A2051C0883099F78093980680915C0184397D
S1131A3009F048C035C00E94671CF80181938F01EA
S1131A40EC15FD05C1F7F7012081318142815381F5
S1131A506481758186819781AFEF0E94081CADEF88
S1131A600E94141C21F018F009E716E0E4CF86E97F
S1131A709EE038D087EA9EE030D088EB9EE037D0F5
S1131A8032DC8BE854DC90937A058093790582E705
S1131A9096E0DEDCDAD517C0C5E815C0C5E813C08A
S1131AA081E007DFC82F8111F9CF0F2EF9E7EF2E60
S1131AB0F6E0FF2EF02D0F2EF1E8CF2EF6E0DF2E0C
S1131AC0F02DC1CFC5E88C2FDF91CF911F910F91DD
S1131AD0FF90EF90DF90CF900895909382058093CC
S1131AE0810508959093800580937F0508959093D0
S1131AF07C0580937B0508951F920F920FB60F9279
S1131B0011240BB60F922F933F934F935F936F93D0
S1131B107F938F939F93AF93BF93EF93FF93E09142
S1131B208105F09182051995FF91EF91BF91AF91D5
S1131B309F918F917F916F915F914F913F912F91E1
S1131B400F900BBE0F900FBE0F901F9018951F9211
S1131B500F920FB60F9211240BB60F922F933F934F
S1131B604F935F936F937F938F939F93AF93BF93A1
S1131B70EF93FF93E0917F05F09180051995FF9114
S1131B80EF91BF91AF919F918F917F916F915F91F1
S1131B904F913F912F910F900BBE0F900FBE0F905E
S1131BA01F9018951F920F920FB60F9211240BB627
S1131BB00F922F933F934F935F936F937F938F93E2
S1131BC09F93AF93BF93EF93FF93E0917D05F091C3
S1131BD07E051995FF91EF91BF91AF919F918F91E0
S1131BE07F916F915F914F913F912F910F900BBE19
S1131BF00F900FBE0F901F9018951F920F920FB663
S1131C000F9211240BB60F922F933F934F935F9330
S1131C106F937F938F939F93AF93BF93EF93FF93B0
S1131C20E0917B05F0917C051995FF91EF91BF91AF
S1131C30AF919F918F917F916F915F914F913F9160
S1131C402F910F900BBE0F900FBE0F901F90189501
S1131C501F920F920FB60F9211240F900FBE0F9088
S1131C601F9018951F920F920FB60F9211240F9088
S1131C700FBE0F901F9018951F920F920FB60F92E0
S1131C8011240F900FBE0F901F9018951F920F9262
S1131C900FB60F9211240F900FBE0F901F9018953E
S1131CA01F920F920FB60F9211240F900FBE0F9038
S1131CB01F9018951F920F920FB60F9211240F9038
S1131CC00FBE0F901F9018951F920F920FB60F9290
S1131CD011240F900FBE0F901F9018951F920F9212
S1131CE00FB60F9211240F900FBE0F901F901895EE
S1131CF01F920F920FB60F9211240F900FBE0F90E8
S1131D001F9018951F920F920FB60F9211240F90E7
S1131D100FBE0F901F9018951F920F920FB60F923F
S1131D2011240F900FBE0F901F9018951F93CF93FF
S1131D30DF931F92CDB7DEB78FB78983F8941981EB
S1131D4019D21FBF0F90DF91CF911F9108951F9358
S1131D50CF93DF931F92CDB7DEB78FB78983F89403
S1131D601981A9D31FBF0F90DF91CF911F910895BF
S1131D7081E080939C06089585FD03C0982F9F738E
S1131D8004C0982F91959F719195E4EEF1E0249110
S1131D90291754F48491803EB4F08032B4F488233B
S1131DA0CCF48F71806216C0E3EFF1E024919217B6
S1131DB08CF48491803E5CF080325CF4882354F48B
S1131DC08F71806207C080E205C08FE103C080E2AA
S1131DD001C08FE180680895CF93DF93C9E7D6E00F
S1131DE084E08C8B83E08D8B2FEF3FEF3F872E8732
S1131DF03D872C879BE09B8B188E40E058EF6FEF5C
S1131E0077E0488759876A877B872AE031E0398BF6
S1131E10288B9AE0998F92E09A8F95E09B8F8C8F14
S1131E2084E8AADF8F8B81E08A8B1E8ADF91CF91B1
S1131E30089585FD02C08F7303C081958F718195CC
S1131E40E4EEF1E0949189173CF4E5EEF1E021E051
S1131E50949189173CF001C020E098174CF48FEF5F
S1131E60820F08952F5F3196203191F780E0089515
S1131E70822F0895CF93DF93E9E7F6E08685809378
S1131E806201878580936301E4E6F1E0A9E7B6E0A7
S1131E908D918193EC3631E0F307D1F7E9E7F6E071
S1131EA084858093600185858093610148E451E0D5
S1131EB0DA018C912289B0E22B9F900111242076C3
S1131EC08F79822BDA018C93CFE6D1E088819589D2
S1131ED09F70807F892B88832EE631E0D9018C9115
S1131EE09689990F990F990F9870877F892B8C93F6
S1131EF02881938DB0E19B9FC0011124922F9F7084
S1131F00892B8883DA018C9193899F71807E892B38
S1131F108C9387898EDFE5E4F1E09081907F8F7068
S1131F20892B8083DF91CF910895CF93DF938E34F3
S1131F3041F0893561F4FB0180818093950680E04E
S1131F400BC1FB01808180938D0680E005C19091D7
S1131F5098069F3009F4DCC08B3009F4C9C080F4C2
S1131F60EB01823009F484C020F4882309F446C0CC
S1131F70D1C0833009F48CC0843009F45AC0CAC07B
S1131F80833579F128F48F3451F08035E9F0C2C0FB
S1131F90873509F456C0803F09F48BC0BBC0FB01F0
S1131FA08081E9E7F6E0858B938D981710F4909380
S1131FB08E06EFE6F1E0808190918E069F70807F1F
S1131FC0892B808380E0C8C0FB0190818181E9E78F
S1131FD0F6E096878787909362018093630180E09F
S1131FE0BBC0FB0190818181E9E7F6E09487858796
S1131FF0909360018093610180E0AEC080919D0662
S113200081118AC0888140E058EF6FEF77E0082E95
S113201004C076956795579547950A94D2F740FF83
S11320207DC0983009F480C088E06DDA8830E1F72B
S113203086C080919D06811173C08881811172C010
S11320408BC0FB019081E9E7F6E0938F85899817AF
S113205010F490938E06EFE6F1E08081282F2F7024
S113206030E1939FC0011124822B808380E074C0EF
S11320708881C9E7D6E08F8B7FDE8F8BDADEE5E4DB
S1132080F1E09081907F8F70892B808380E064C021
S1132090888180938B06E8E4F1E0208130E2839F1D
S11320A0C00111248076922F9F79892B808380E050
S11320B053C0FB01B081A1815281438134812581C8
S11320C096818781E9E7F6E0B083A1835283438355
S11320D03483258396838783E4E6F1E0A9E7B6E0B9
S11320E08D918193EC3631E0F307D1F780E034C071
S11320F0FB01808180938F06EEE6F1E09081880FEA
S1132100880F880F8870977F892B808380E024C094
S113211081E822C084EF20C086E81EC088EE1CC07F
S113212086E81AC088EE18C080938C06E8E4F1E0D3
S11321309081907E8F71892B808380E00DC088818F
S113214080938C06E8E4F1E09081907E8F71892B76
S1132150808386E1D8D980E0DF91CF91089504C0CF
S11321606150710981099109611571058105910514
S1132170B9F70895CF92DF92EF92FF920F931F93D6
S1132180CF93DF93E0917905F0917A05309771F45C
S1132190CCE4D1E088818F77888363E070E080E0CD
S11321A090E0DDDF88818068888349C00091470121
S11321B010917B0111230CF442C0E080F18082E095
S11321C0810FEBE8F0E0E81BF109E701CE0FDF1F18
S11321D0C12ED12CA6014F5F5F4F60E871E0CE01A4
S11321E00E94751CFE011293D7011896FC93EE937E
S11321F01797EC0DFD1D02836091790570917A05A6
S113220082E796E02CD98BE892D890937A05809354
S11322107905892B21F481E0809371060DC0CCE40B
S1132220D1E088818F77888363E070E080E090E07C
S113223096DF88818068888380E480934F01DF91F2
S1132240CF911F910F91FF90EF90DF90CF90089561
S1132250CF93DF93AC01FC01C081D181AF81B885FC
S11322608C9180939906E82FF0E03196EA0FFB1FDA
S1132270808131813D3320F4311103C031E001C04C
S11322803CE382958695869583702FEF829FC001EB
S11322901124389FB001399F700D11249B01A3E8CC
S11322A0BDE20E94EF1B96958795929582958F705B
S11322B089279F7089278F3F910511F008F08FEFD0
S11322C080835A834983CE01CAD6DF91CF91089582
S11322D090919D06911116C0883029F414D910925A
S11322E0710688E008958091790590917A05892B8B
S11322F021F086E108D986E0089581E08093710693
S113230086E0089586E8089504C061507109810942
S113231091096115710581059105B9F70895109228
S11323209D0680918305833069F028F4882391F019
S1132330813031F00DC0853039F0873039F008C074
S113234087E809C081EE07C089EE05C085E803C0AF
S113235085E801C080E060917706709178067CC6BC
S113236008951F93CF93DF931F92CDB7DEB7182F35
S1132370662381F0ECE6F1E020819091950630E14E
S1132380939FC0011124922F9F70892B8083123058
S1132390E0F408C0ECE6F1E080818F7080831230B5
S11323A0A0F40DC0ECE6F1E0808190918D06990FC8
S11323B09E70817F892B808310926F011AC0ECE696
S11323C0F1E080818E60808314C0E9E7F6E0838DBC
S11323D020E1829FC00111249589892B80936F018C
S11323E0ACE6B1E08C919489990F9E70817F892B22
S11323F08C9389E188D88931E1F71130A1F4809177
S11324009906833140F061E073E080E090E07CDF86
S1132410109299060DC06BEA70E080E090E074DFE2
S11324201092990605C06CE070E080E090E06CDFEB
S11324308FB78983F8941981E9E3F1E080818260A0
S113244080830000000080818D7F808360919A06E4
S113245070919B06FB01408150E04150510980E896
S113246091E00E94751C81E080939D061FBF0F9030
S1132470DF91CF911F910895FC0190919D069111D8
S113248016C0F0937806E09377060780F085E02D78
S1132490F0939B06E0939A0680818150809399067D
S11324A0EF2B39F0862F642F5CDF80E0089586E8F7
S11324B0089588EE089580919D068130C1F480913D
S11324C042018295869587708093830582E080938C
S11324D09D068091790590917A05892B31F489E0E4
S11324E012D881E080937106089586E10CC808959E
S11324F0882329F1EDE4F1E080818C7F8083808161
S113250088608083AAE4B1E08C91807F83608C939F
S11325108081846080838081837009F054C08091BD
S11325204D0183FF52C080914D0182FF50C08091C4
S11325304A018F70833009F04CC080E00895EDE4C7
S1132540F1E08081877F8083AAE4B1E08C91807F71
S113255087608C93808184608083613031F48081D2
S11325608C7F8160808385E817C0623041F4EDE49C
S1132570F1E080818C7F8260808385E80DC06623D2
S113258011F0633041F4EDE4F1E080818C7F8083CD
S113259085E860E001C088EE20914D01237030E0B1
S11325A070E026173707B9F490914D0193FD15C0DB
S11325B090914D0192FD13C090914A019F70933008
S11325C079F480E0089585E8089585E8089585E81C
S11325D0089585E8089585E8089585E8089585E8CF
S11325E0089504C06150710981099109611571054B
S11325F081059105B9F70895811125C0FB018081FA
S1132600803D2CF08FEC809384056FE013C0873AF3
S11326102CF486EA8093840560E00CC080938405E2
S1132620082E000C990B865A9F4F63E070E00E94BD
S1132630B21B6F5FE5E5F1E08081807F6F70682BEE
S1132640608380E0089584EF089586EA809384058A
S113265064E875E080E0D0DF61E080E00E949C07E0
S113266060E180E00E949C0780E00895FF920F9350
S11326701F93CF93DF93F09098068FE0F81203C076
S113268088E00E94830A10924E01C1E5D1E088815E
S11326908F7E888388818F60888367E070E080E024
S11326A090E09FDF888185FD17C08881807F8883C3
S11326B063E070E080E090E094DF888121E090E0C6
S11326C085FB002700F910E085FF20E0C22FD92FF9
S11326D0012B09F441C012C0C1E5D1E088818061B9
S11326E0888388818F60888367E070E080E090E071
S11326F078DF888185FD2EC0D1E001C0D0E0C0E044
S113270001E511E0F8018081807F9C2F9F70892B67
S1132710808363E070E080E090E063DFF801808113
S113272085FD04C0CC2331F0C15004C0CF5FC0315B
S113273049F7CFE0DD2339F0FBE4CF9FE00111241A
S1132740CA50D64F09C082E3C89FE0011124CC557A
S1132750D94F02C0CFEFDFEFEFE4F1E0808188E0F2
S1132760808380E4808384E0808388E480934E01C6
S1132770EFE0FE1203C08FE00E94830ACE01DF91D6
S1132780CF911F910F91FF9008950C94DB01089550
S11327900C9413020895809184009091850008950B
S11327A0EFE6F0E080818D7F8083B19A0895B19A3D
S11327B0EFE6F0E08081826080830895EFE6F0E048
S11327C0808181608083B09A089580E890E082C31C
S11327D00895E9E8F0E02081922B9083E8E8F0E0A6
S11327E09081892B80830895CF93DF931F92CDB777
S11327F0DEB78FB78983F89489810F90DF91CF91E9
S113280008958FBF0895CF93DF9380E890E0EBD2D3
S113281065EC73E180E890E0D4D3CFE6D0E0888122
S11328208160888368EC73E180E890E0EAD3888172
S11328308D7F8883E1E8F0E080818160808388E097
S1132840DF91CF9108951F920F920FB60F9211242A
S11328500BB60F922F933F934F935F936F937F9396
S11328608F939F93AF93BF93EF93FF93E091A3054F
S1132870F091A405309709F01995FF91EF91BF915C
S1132880AF919F918F917F916F915F914F913F9104
S11328902F910F900BBE0F900FBE0F901F901895A5
S11328A01F920F920FB60F9211240BB60F922F9313
S11328B03F934F935F936F937F938F939F93AF93C4
S11328C0BF93EF93FF93E091A105F091A205309798
S11328D009F01995FF91EF91BF91AF919F918F915D
S11328E07F916F915F914F913F912F910F900BBE0C
S11328F00F900FBE0F901F9018951F920F920FB656
S11329000F9211240BB60F922F933F934F935F9323
S11329106F937F938F939F93AF93BF93EF93FF93A3
S1132920E0919F05F091A005309709F01995FF916A
S1132930EF91BF91AF919F918F917F916F915F9133
S11329404F913F912F910F900BBE0F900FBE0F90A0
S11329501F9018951F920F920FB60F9211240BB669
S11329600F922F933F934F935F936F937F938F9324
S11329709F93AF93BF93EF93FF93E0919D05F091E5
S11329809E05309709F01995FF91EF91BF91AF9192
S11329909F918F917F916F915F914F913F912F9173
S11329A00F900BBE0F900FBE0F901F9018951F92A3
S11329B00F920FB60F9211240BB60F922F933F93E1
S11329C04F935F936F937F938F939F93AF93BF9333
S11329D0EF93FF93E0919B05F0919C05309709F0EC
S11329E01995FF91EF91BF91AF919F918F917F9135
S11329F06F915F914F913F912F910F900BBE0F906C
S1132A000FBE0F901F9018951F920F920FB60F9242
S1132A1011240BB60F922F933F934F935F936F93B1
S1132A207F938F939F93AF93BF93EF93FF93E09123
S1132A309905F0919A05309709F01995FF91EF9156
S1132A40BF91AF919F918F917F916F915F914F91C2
S1132A503F912F910F900BBE0F900FBE0F901F90C0
S1132A6018951F920F920FB60F9211240BB60F9266
S1132A702F933F934F935F936F937F938F939F9382
S1132A80AF93BF93EF93FF93E0919705F09198056F
S1132A90309709F01995FF91EF91BF91AF919F91F4
S1132AA08F917F916F915F914F913F912F910F90F3
S1132AB00BBE0F900FBE0F901F9018951F920F9290
S1132AC00FB60F9211240BB60F922F933F934F938F
S1132AD05F936F937F938F939F93AF93BF93EF9382
S1132AE0FF93E0919505F0919605309709F01995BB
S1132AF0FF91EF91BF91AF919F918F917F916F91D2
S1132B005F914F913F912F910F900BBE0F900FBE8D
S1132B100F901F9018951F920F920FB60F921124C9
S1132B200BB60F922F933F934F935F936F937F93C3
S1132B308F939F93AF93BF93EF93FF93E09193058C
S1132B40F0919405309709F01995FF91EF91BF9199
S1132B50AF919F918F917F916F915F914F913F9131
S1132B602F910F900BBE0F900FBE0F901F901895D2
S1132B701F920F920FB60F9211240BB60F922F9340
S1132B803F934F935F936F937F938F939F93AF93F1
S1132B90BF93EF93FF93E0919105F09192053097E5
S1132BA009F01995FF91EF91BF91AF919F918F918A
S1132BB07F916F915F914F913F912F910F900BBE39
S1132BC00F900FBE0F901F9018951F920F920FB683
S1132BD00F9211240BB60F922F933F934F935F9351
S1132BE06F937F938F939F93AF93BF93EF93FF93D1
S1132BF0E0918F05F0919005309709F01995FF91B8
S1132C00EF91BF91AF919F918F917F916F915F9160
S1132C104F913F912F910F900BBE0F900FBE0F90CD
S1132C201F9018951F920F920FB60F9211240BB696
S1132C300F922F933F934F935F936F937F938F9351
S1132C409F93AF93BF93EF93FF93E0918D05F09122
S1132C508E05309709F01995FF91EF91BF91AF91CF
S1132C609F918F917F916F915F914F913F912F91A0
S1132C700F900BBE0F900FBE0F901F9018951F92D0
S1132C800F920FB60F9211240BB60F922F933F930E
S1132C904F935F936F937F938F939F93AF93BF9360
S1132CA0EF93FF93E0918B05F0918C05309709F039
S1132CB01995FF91EF91BF91AF919F918F917F9162
S1132CC06F915F914F913F912F910F900BBE0F9099
S1132CD00FBE0F901F9018951F920F920FB60F9270
S1132CE011240BB60F922F933F934F935F936F93DF
S1132CF07F938F939F93AF93BF93EF93FF93E09151
S1132D008905F0918A05309709F01995FF91EF91A3
S1132D10BF91AF919F918F917F916F915F914F91EF
S1132D203F912F910F900BBE0F900FBE0F901F90ED
S1132D3018951F920F920FB60F9211240BB60F9293
S1132D402F933F934F935F936F937F938F939F93AF
S1132D50AF93BF93EF93FF93E0918705F0918805BC
S1132D60309709F01995FF91EF91BF91AF919F9121
S1132D708F917F916F915F914F913F912F910F9020
S1132D800BBE0F900FBE0F901F9018951F920F92BD
S1132D900FB60F9211240BB60F922F933F934F93BC
S1132DA05F936F937F938F939F93AF93BF93EF93AF
S1132DB0FF93E0918505F0918605309709F0199508
S1132DC0FF91EF91BF91AF919F918F917F916F91FF
S1132DD05F914F913F912F910F900BBE0F900FBEBB
S1132DE00F901F9018951F93CF93DF931F92CDB729
S1132DF0DEB72FB72983F8941981009709F464C0CA
S1132E008837910549F461E080E00E949C0760E105
S1132E1080E00E949C0758C0803C910529F462E040
S1132E2080E00E949C0750C08C34910529F464E032
S1132E3080E00E949C0748C08038910529F468E02E
S1132E4080E00E949C0740C08434910529F460E22C
S1132E5080E00E949C0738C0803B910529F460E41F
S1132E6080E00E949C0730C0883B910529F460E80B
S1132E7080E00E949C0728C0883C910529F461E009
S1132E8081E00E949C0720C08039910529F468E004
S1132E9081E00E949C0718C0803A910529F460E102
S1132EA081E00E949C0710C0803221E0920729F43F
S1132EB060E281E00E949C0707C08334914021F4C2
S1132EC060E481E00E949C071FBF0F90DF91CF91C7
S1132ED01F9108951F93CF93DF931F92CDB7DEB751
S1132EE02FB72983F8941981009709F464C08837AF
S1132EF0910549F461E080E00E94B40760E180E05C
S1132F000E94B40758C0803C910529F462E080E037
S1132F100E94B40750C08C34910529F464E080E029
S1132F200E94B40748C08038910529F468E080E025
S1132F300E94B40740C08434910529F460E280E023
S1132F400E94B40738C0803B910529F460E480E016
S1132F500E94B40730C0883B910529F460E880E002
S1132F600E94B40728C0883C910529F461E081E0FF
S1132F700E94B40720C08039910529F468E081E0FB
S1132F800E94B40718C0803A910529F460E181E0F9
S1132F900E94B40710C0803221E0920729F460E255
S1132FA081E00E94B40707C08334914021F460E4B7
S1132FB081E00E94B4071FBF0F90DF91CF911F9152
S1132FC008958038910529F47093A4056093A305AE
S1132FD008958039910529F470939C0560939B05AD
S1132FE00895803A910529F47093940560939305AC
S1132FF008958032914021F470938C0560938B0581
S113300008958038910529F47093A2056093A10571
S113301008958039910529F470939A056093990570
S11330200895803A910529F470939205609391056F
S113303008958032914021F470938A056093890544
S113304008950E9435070E947F070E9471090E941B
S1133050CE0B0E94B105F9CF0C94E3040895CF93ED
S1133060DF93EC010E94770489819A810E949D0973
S1133070DF91CF9108955058BB27AA270ED0E5C001
S1133080D6D030F0DBD020F031F49F3F11F41EF4A1
S1133090CBC00EF4E095E7FBC1C0E92FE7D080F385
S11330A0BA17620773078407950718F071F49EF541
S11330B0FFC00EF4E0950B2EBA2FA02D0B01B90121
S11330C090010C01CA01A0011124FF27591B99F09A
S11330D0593F50F4503E68F11A16F040A22F232FA6
S11330E0342F4427585FF3CF469537952795A795F6
S11330F0F0405395C9F77EF41F16BA0B620B730B9D
S1133100840BBAF09150A1F0FF0FBB1F661F771F0D
S1133110881FC2F70EC0BA0F621F731F841F48F4C2
S1133120879577956795B795F7959E3F08F0B3CF48
S11331309395880F08F09927EE0F97958795089532
S113314004D06894B111B5C0089598D088F09F5701
S113315090F0B92F9927B751A0F0D1F0660F771FDF
S1133160881F991F1AF0BA95C9F712C0B13081F0BF
S11331709FD0B1E008959CC0672F782F8827B85F4F
S113318039F0B93FCCF3869577956795B395D9F720
S11331903EF490958095709561957F4F8F4F9F4F2A
S11331A00895E89409C097FB3EF490958095709536
S11331B061957F4F8F4F9F4F9923A9F0F92F96E97F
S11331C0BB279395F695879577956795B795F111F4
S11331D0F8CFFAF4BB0F11F460FF1BC06F5F7F4F91
S11331E08F4F9F4F16C0882311F096E911C07723A3
S11331F021F09EE8872F762F05C0662371F096E8AC
S1133200862F70E060E02AF09A95660F771F881F7A
S1133210DAF7880F9695879597F9089597F99F6738
S113322080E870E060E008959FEF80EC089500244A
S11332300A941616170618060906089500240A9417
S113324012161306140605060895092E0394000C9D
S113325011F4882352F0BB0F40F4BF2B11F460FF2C
S113326004C06F5F7F4F8F4F9F4F089557FD905855
S1133270440F551F59F05F3F71F04795880F97FB36
S1133280991F61F09F3F79F08795089512161306F0
S11332901406551FF2CF4695F1DF08C0161617061F
S11332A01806991FF1CF8695710561050894089554
S11332B0E894BB2766277727CB0197F908950BD0AD
S11332C0C4CFB5DF28F0BADF18F0952309F0A6CFF4
S11332D0ABCF1124EECFCADFA0F3959FD1F3950FA6
S11332E050E0551F629FF001729FBB27F00DB11D86
S11332F0639FAA27F00DB11DAA1F649F6627B00D16
S1133300A11D661F829F2227B00DA11D621F739FFE
S1133310B00DA11D621F839FA00D611D221F749F0C
S11333203327A00D611D231F849F600D211D822F53
S1133330762F6A2F11249F5750408AF0E1F088239A
S11333404AF0EE0FFF1FBB1F661F771F881F9150A7
S11333505040A9F79E3F510570F060CFAACF5F3F60
S1133360ECF3983EDCF3869577956795B795F795DA
S1133370E7959F5FC1F7FE2B880F911D9695879562
S113338097F90895FA01EE0FFF1F309621053105D4
S113339099F16115710561F48038BFE39B0749F128
S11333A068949038810561F08038BFEF9B0741F045
S11333B0992342F5FF3FE1053105210511F1E89418
S11333C00894E795D901AA2329F4AB2FBE2FF85FFF
S11333D0D0F310C0FF5F70F4A695E0F7F73950F012
S11333E019F0FF3A38F49F779F930CD00F9007FCA5
S11333F0905808953EF018CF60E070E080E89FE3B5
S113340008954FE79F775F934F933F932F939ED0F9
S11334102F913F914F915F9152DF05C019F40EF047
S1133420FDCE46CF01CF2ADFC8F39638C0F707F8A0
S11334300F92E8942BE33AEA48EB5FE74EDF0F92F2
S11334400F920F924DB75EB70F92C0D0E2E6F1E053
S113345016D04F915F91EF91FF91E595EE1FFF1FFD
S113346049F0FE57E0684427EE0F441FFA95E1F750
S11334704195550B32D00F9007FE26C00895DF9377
S1133480CF931F930F93FF92EF92DF927B018C01F6
S1133490689405C0DA2EEF011EDFFE01E894A591C1
S11334A02591359145915591AEF3EF01F6DDFE017D
S11334B09701A801DA9479F7DF90EF90FF900F91CC
S11334C01F91CF91DF9108959B01AC0160E070E002
S11334D080E89FE3AEC0A2CE14C1D0DEE8F3992306
S11334E0D9F3940F511DBBF39150504094F059F00F
S11334F0882332F0660F771F881F91505040C1F720
S11335009E3F510544F7880F911D9695879597F92D
S113351008955F3FACF0983E9CF0BB278695779565
S11335206795B79508F4B1609395C1F7BB0F58F749
S113353011F460FFE8CF6F5F7F4F8F4F9F4FE3CF52
S1133540B8CE0EF0DEC070CE689468CE97DEC8F3B5
S11335509923D1F3C6F3DF93CF931F930F93FF9275
S1133560C92FDD2788232AF02197660F771F881F2C
S1133570DAF720E030E040E85FEB9FE3883920F0A1
S1133580803E30F021968F7777DDEAE8F1E003C0E2
S113359073DDE7EBF1E073DF8B01BE01EC01FB2E81
S11335A06F5771097595771F880B990BFCDD28E11E
S11335B032E741E35FE38FDEAF2D9801AE01FF9068
S11335C00F911F91CF91DF9168DD3FCEFA01DC01AD
S11335D0AA0FBB1F9B01AC01BF5728F42227332736
S11335E0442750781FC0B75188F4AB2F0024469568
S11335F037952795011CA395D2F3002069F0220F7B
S1133600331F441FB395DAF30DD035CD6130710506
S1133610A0E88A07B94630F49B01AC0166277727F6
S113362088279078309621F0208331834283538316
S113363008950CD00ACE02DE40F0F9DD30F021F41A
S11336405F3F19F0EBCD511134CEEECD0FDE98F380
S11336509923C9F35523B1F3951B550BBB27AA270F
S113366062177307840738F09F5F5F4F220F331F81
S1133670441FAA1FA9F333D00E2E3AF0E0E830D04D
S113368091505040E695001CCAF729D0FE2F27D050
S1133690660F771F881FBB1F261737074807AB071E
S11336A0B0E809F0BB0B802DBF01FF2793585F4F93
S11336B02AF09E3F510568F0B1CDFBCD5F3FECF39E
S11336C0983EDCF3869577956795B795F7959F5F58
S11336D0C9F7880F911D9695879597F90895E1E0AC
S11336E0660F771F881FBB1F621773078407BA070B
S11336F020F0621B730B840BBA0BEE1F88F7E09566
S113370008959F3F31F0915020F487957795679500
S1133710B795880F911D9695879597F90895DB01C4
S11337208F939F936BD0BF91AF91A29F800D911DFA
S1133730A39F900DB29F900D11240895AA1BBB1B4B
S113374051E107C0AA1FBB1FA617B70710F0A61B9D
S1133750B70B881F991F5A95A9F780959095BC01BE
S1133760CD01089597FB072E16F4009406D077FD3B
S113377008D0E4DF07FC05D03EF4909581959F4F77
S11337800895709561957F4F0895A1E21A2EAA1BA2
S1133790BB1BFD010DC0AA1FBB1FEE1FFF1FA217FD
S11337A0B307E407F50720F0A21BB30BE40BF50BFA
S11337B0661F771F881F991F1A9469F76095709583
S11337C0809590959B01AC01BD01CF010895EE0F4A
S11337D0FF1F881F8BBF0790F691E02D1994A29FBD
S11337E0B001B39FC001A39F700D811D1124911DD1
S11337F0B29F700D811D1124911D0895F0DFA59FC6
S1133800900DB49F900DA49F800D911D11240895D7
S11338100024A7FD00942A0F301D401D501D601D7B
S1133820701D801D901D08950024A7FD00942A1783
S11338303005400550056005700580059005089524
S11338408F929F92AF92BF92CF92DF92EF92FF92AC
S1133850CF93DF93EC01688179818A819B81611523
S113386071058105910521F464E279ED8BE597E01A
S11338702DE133EF41E050E0CDD149015A019B01E4
S1133880AC01A7EAB1E4BADF6B017C01ACEEB4EFA2
S1133890A5019401DDD1DC01CB018C0D9D1DAE1D74
S11338A0BF1DB7FF03C00197A109B048888399835E
S11338B0AA83BB839F77DF91CF91FF90EF90DF9036
S11338C0CF90BF90AF909F908F900895B9CF80E034
S11338D092E0B6CFA0E0B0E08093000290930102A2
S11338E0A0930202B09303020895FB01DC0102C01D
S11338F001900D9241505040D8F708950F931F93B3
S1133900CF93DF93009731F46115710519F480E0CA
S113391090E039C08B01EC016EE070E081E090E052
S113392037D0FC01892B99F380E8838301151105B5
S113393071F01387028781E8838380919F069091B9
S1133940A006892B21F4F093A006E0939F0620970C
S1133950C9F0D187C0878381826083838091A10667
S11339609091A206892B71F4F093A206E093A1062C
S11339708091A3069091A406892B21F4F093A406C8
S1133980E093A306CF01DF91CF911F910F9108958A
S11339900F931F93CF93DF93869F8001879F100D12
S11339A0969F100D1124C8010DD0EC01009721F051
S11339B0A80160E070E027D1CE01DF91CF911F9183
S11339C00F9108950F931F93CF93DF938230910546
S11339D010F482E090E0E091A706F091A80620E0C0
S11339E030E0A0E0B0E0309719F1408151810281CC
S11339F0138148175907C8F08417950769F410977D
S1133A0031F012960C93129713961C9327C00093CF
S1133A10A7061093A80622C02115310519F04217F4
S1133A20530718F49A01BD01EF01DF01F801DBCF60
S1133A3021153105F9F0281B390B2430310580F4A8
S1133A408A819B816115710521F0FB019383828337
S1133A5004C09093A8068093A706FE01329644C042
S1133A60FE01E20FF31F81939193225031093983B0
S1133A7028833AC02091A5063091A606232B41F451
S1133A8020910602309107023093A6062093A506E2
S1133A9020910402309105022115310541F42DB71E
S1133AA03EB74091080250910902241B350BE09166
S1133AB0A506F091A606E217F307A0F42E1B3F0B10
S1133AC02817390778F0AC014E5F5F4F241735078C
S1133AD048F04E0F5F1F5093A6064093A5068193AE
S1133AE0919302C0E0E0F0E0CF01DF91CF911F910C
S1133AF00F910895CF93DF93009709F481C0FC01DF
S1133B00329713821282A091A706B091A80610974B
S1133B1081F420813181820F931F2091A506309179
S1133B20A6062817390751F5F093A606E093A506D3
S1133B3067C0ED0120E030E0CE17DF0740F44A8192
S1133B405B819E0141155105F1F0EA01F5CFD38364
S1133B50C28340815181840F951FC817D90759F436
S1133B6088819981840F951F0296918380838A812D
S1133B709B81938382832115310529F4F093A80650
S1133B80E093A7063DC0E901FB83EA83499159917B
S1133B90C40FD51FEC17FD0761F480819181840F58
S1133BA0951F0296E90199838883828193819B837F
S1133BB08A83E0E0F0E012968D919C911397009730
S1133BC019F0FD01DC01F7CF8D919C9111979D01B6
S1133BD02E5F3F4F820F931F2091A5063091A606BA
S1133BE02817390769F4309729F41092A80610921F
S1133BF0A70602C013821282B093A606A093A5065C
S1133C00DF91CF910895DC0101C06D934150504084
S1133C10E0F70895052E97FB16F400940FD057FD96
S1133C2005D0B3DD07FC02D046F408C0509540959A
S1133C30309521953F4F4F4F5F4F08959095809554
S1133C40709561957F4F8F4F9F4F0895B7FFD6CDE5
S10F3C50D5DD821B930B0895F894FFCF80
S1133C5C010000000000A9062000802500000300DC
S1053C6C000052
S9030000FC
