:10000000B8C00000D7C00000D5C00000D3C00000B9
:10001000D1C00000CFC00000CDC00000CBC00000A8
:10002000C9C00000C7C00000C5C00000C3C00000B8
:10003000C1C00000BFC00000BDC00000BBC00000C8
:10004000B9C000000C948E100C94BB100C94E810F6
:100050000C946110AFC00000ADC00000ABC0000048
:10006000A9C00000A7C00000A5C00000A3C00000F8
:10007000A1C000009FC000009DC000009BC0000008
:100080000C9442110C946F110C949C110C9415114A
:1000900089C300008FC000008DC000008BC000002D
:1000A00089C0000087C000000C94F6110C94231244
:1000B0000C9450120C94C9117DC000000C94AA122B
:1000C0000C94D7120C9404130C947D1273C000008E
:1000D00071C000006FC000006DC000006BC0000068
:1000E00069C000000C94C10B0C94B70B0C94CB0BA3
:1000F0000C94E60A0C94110B0C94AD0B0C94BB0AF7
:100100000C943C0B57C0000055C0000053C00000C9
:1001100051C000004FC000000C94990B0C94A30B2D
:100120000C948F0B0C94850B0C947B0B0C94710B23
:100130000C94670B8E08B3082D09C0082D098008A0
:100140009C082D092D092D092D092D0954082D096B
:100150002D092D092D092D092D09D8082D092D0945
:10016000080904030302020100FFFEFDFCFBF9F78E
:10017000F4EF11241FBECFEFD1E8DEBFCDBF00E00A
:100180000CBF12E0A0E0B2E0ECEAFDE200E00BBF41
:1001900002C007900D92AC31B107D9F726E0ACE16F
:1001A000B2E001C01D92AE31B207E1F70E941F1408
:1001B0000C94D41625CF0E941D10209120022223DA
:1001C000D9F04091130630E020912002642F732F64
:1001D0000E944614FB018FEF9FEF642F732F0E9444
:1001E000461430E0629FC001639F900D729F900D96
:1001F00011248E0F9F1F08956091130670E00E94D6
:100200004614CB0108950E9422100E943C101092C7
:100210001C0210921D0210921E0210921F021092D8
:100220002202109221020C9449100E942B1010926D
:1002300020020895E8DFF9DF0C942E100F931F932E
:10024000CF93DF93EC010E941D108C01BE0180E072
:1002500090E02091130630E040E050E00E94371417
:10026000DC01CB01A80160E070E0480F591F6A1F54
:100270007B1F40931C0250931D0260931E027093DB
:100280001F0240911C0250911D0260911E0270914C
:100290001F02AB016627772740931C0250931D0273
:1002A00060931E0270931F0240911C0250911D0228
:1002B00060911E0270911F02411551056105710583
:1002C00091F040911C0250911D0260911E027091AC
:1002D0001F020196080F191F10932202009321029A
:1002E0000E94221008C0080F191F109322020093C9
:1002F00021020E94241080912102909122028436D2
:10030000910530F48C599F4F9093220280932102E3
:1003100080912102909122020E943110DF91CF91B1
:100320001F910F910895109220020E944B1080930C
:100330001306089580911C0290911D02A0911E0247
:10034000B0911F020097A105B105C9F080911C0270
:1003500090911D02A0911E02B0911F020197A10968
:10036000B10980931C0290931D02A0931E02B093CA
:100370001F020097A105B10511F40E94241080917D
:1003800020028F5F8093200290911306891748F016
:1003900010922002E0912302F0912402309709F09C
:1003A000199508950E942210E0912502F0912602ED
:1003B000309709F0199508959093240280932302B1
:1003C000089590932602809325020895EF92FF925C
:1003D0000F931F93CF93DF937C01EB018B01040FED
:1003E000151FC017D10721F06991C7015BD0F9CF64
:1003F00080E0DF91CF911F910F91FF90EF900895D2
:10040000EF92FF920F931F93CF93DF937C01EB0149
:100410008B01040F151FC017D10721F0C70149D068
:100420008993F9CF80E0DF91CF911F910F91FF90D9
:10043000EF900895CF93DF931F92CDB7DEB78091F1
:10044000AF059091B005E091AB05F091AC05BE0110
:100450006F5F7F4F19958981082E000C990B0F90C3
:10046000DF91CF910895682F8091AF059091B005ED
:10047000E091AD05F091AE05199597FD03C081E0BF
:1004800090E008958FEF9FEF0895803C910519F457
:1004900062E080E005C0883C910519F461E081E0EC
:1004A0003BC30895FC01208125FFFCCF668380E0DB
:1004B0000895FC01208127FFFCCF868108954F928B
:1004C0005F926F927F928F929F92AF92BF92CF92E4
:1004D000DF92EF92FF920F931F93CF93DF93EC0184
:1004E0006A017B01C901B80143E09695879577952C
:1004F00067954A95D1F7488141FD0CC048015901E3
:10050000B3E1B694A79497948794BA95D1F72B0149
:100510003C0112C028013901F4E0769467945794A5
:100520004794FA95D1F748015901A4E1B694A794EC
:1005300097948794AA95D1F74C145D046E047F04B8
:1005400028F1C814D904EA04FB0400F1488141FFF2
:1005500007C0A7019601220F331F441F551F0BC070
:10056000C901B80124E096958795779567952A95F6
:10057000D1F7A70196010E946D14DA01C901019714
:10058000A109B1099D838C8381E001C080E0DF91E6
:10059000CF911F910F91FF90EF90DF90CF90BF9080
:1005A000AF909F908F907F906F905F904F90089545
:1005B0000F931F93CF93DF93EC018B0166DF8A814A
:1005C0008F738A83F8019681358184812A81482F2F
:1005D0004370440F297F242B2A8329818470880F3C
:1005E000880F2B7F822B89838A818F7C832B8A8340
:1005F0008A81282F277FF8E09F9FC0011124822B3A
:100600008A83F801408151816281738100E012E1A7
:100610002AE730E0CE0153DF998198609983998170
:1006200090619983DF91CF911F910F910895CF939E
:10063000DF93EB013EDF8883DF91CF91089532CFC6
:100640000F931F93CF93DF93CDB7DEB727970FB6E6
:10065000F894DEBF0FBECDBF08EC10E01093B005DC
:100660000093AF058FE193E09093AE058093AD05C5
:1006700087E193E09093AC058093AB05EAE0F2E06C
:1006800084818D8385818E8386818F838081918112
:10069000A281B38189839A83AB83BC83BE016F5FE0
:1006A0007F4F88EC90E084DF6AE172E083E392E0C0
:1006B0000E942615F80181818068818327960FB6F4
:1006C000F894DEBF0FBECDBFDF91CF911F910F9188
:1006D0000895EF92FF920F931F93CF938C01C62F33
:1006E000E62EF12CA701B80188EC90E06FDE8111B5
:1006F000F9CF8C2FCF911F910F91FF90EF9008951C
:10070000DC012091280230912902231728F0822F42
:10071000831B8093270205C09CE9920F931B909343
:10072000270290912702992339F19C3948F02093B0
:1007300029028CE9809327026C3928F06CE903C008
:10074000961708F4692F90912902262F30E0222372
:1007500071F0E92FF0E0E65DFD4F80818D9321502F
:100760009B3911F09F5F01C090E031E0F0CF311173
:1007700090932902862F089580E00895CF93DF9308
:100780001F92CDB7DEB761E0CE010196B9DF8823B5
:1007900019F0898190E002C08FEF9FEF0F90DF91F9
:1007A000CF9108951F920F920FB60F9211240BB69E
:1007B0000F922F933F934F935F936F937F938F93FA
:1007C0009F93AF93BF93EF93FF93CF93DF931F92CA
:1007D000CDB7DEB741E050E0BE016F5F7F4F88ECE0
:1007E00090E00EDEF89480912802E82FF0E0E65DBC
:1007F000FD4F998190838B3919F41092280203C020
:100800008F5F8093280278940F90DF91CF91FF91B2
:10081000EF91BF91AF919F918F917F916F915F9178
:100820004F913F912F910F900BBE0F900FBE0F90E5
:100830001F901895CF93DF9300D0CDB7DEB780918E
:1008400011029091120299838A838AE08B8396DF4A
:100850008F3F29F480913A038437D9F40CC0E0919A
:100860003A0391E09E0F90933A03F0E0EA53FD4F74
:1008700080838D3079F784E08CB960913A036150C0
:1008800086EC92E0B6D063E0CE01019622DF1092B2
:100890003A030F900F900F90DF91CF91089520E1D0
:1008A0002CB9FC0187819085FC0160816B500A9610
:1008B00010CF08954F925F926F927F928F92AF9276
:1008C000CF92EF920F931F93CF93DF93CDB7DEB705
:1008D000A9E8B0E0AE19B109A35CBC4F302F3D01CF
:1008E0002801942D931B9E1538F4F20191912F014C
:1008F000F30191933F01F5CF423059F43BE03E0DB7
:100900004091FA055091FB055E934E9340E050E80C
:100910002BC0189731E13E0D9091EE059C9390917C
:10092000EF0511969C9311979091F00512969C9368
:1009300012979091F10513969C9313979091F2055D
:1009400014969C9314979091F30515969C93159784
:100950009091F40516969C9316979091F50517962D
:100960009C93179740E050EC823059F4FB01608172
:100970007181FD0172936293CF01FA01E064F86026
:100980000DC0CD0108973A5F18E0FB01DC01019032
:100990000D921A95E1F7FA01E064FC604EEF5AEC13
:1009A000DC01129711965C934E9311972C93C11012
:1009B00002C0E16001C0E162DC0115971196FC9371
:1009C000EE9311973C93B0934503A0934403482DB5
:1009D0006A2D8DE393E0DF91CF911F910F91EF90FE
:1009E000CF90AF908F907F906F905F904F900C94CE
:1009F000240F8F92AF92CF92EF920F931F93CF93CA
:100A0000DF931F921F92CDB7DEB72FEF3FEF3A83F0
:100A1000298320913B0330913C03A9014F5F5F4F35
:100A200050933C0340933B03812C32E0A32EC12C16
:100A3000E62E8C0142E0BE016F5F7F4F82E03ADF1D
:100A40000F900F90DF91CF911F910F91EF90CF906A
:100A5000AF908F90089586E00C94610ECF93DF9352
:100A600000D000D0CDB7DEB73CD032D076D1DCD4C8
:100A70008111FFCF789484E090E09C838B838EEF8C
:100A80009AEC9A8389838CE08E831D82BE016D5F10
:100A90007F4F83E56FD7BE016F5F7F4F80E56AD7D9
:100AA000BE016A5F7F4F80E065D7BE016B5F7F4FFD
:100AB00084E060D762E080E00E94630FCCDF26967E
:100AC0000FB6F894DEBF0FBECDBFDF91CF91089572
:100AD0008DB18F7D9EB19C639EB98C618DB9089557
:100AE000AFCDCF93DF931F92CDB7DEB78FEF80935B
:100AF0006400809365008FB78983F89489815F9340
:100B000050E85093610050E0509361005F918FBFB7
:100B10000F90DF91CF910895CF93DF931F92CDB7C0
:100B2000DEB79FB79983F8949981823040F4E82F1B
:100B3000F0E0EC59FF4F60958081682360839FBF90
:100B40000F90DF91CF910895CF93DF931F92CDB790
:100B5000DEB79FB79983F8949981823038F4E82FF3
:100B6000F0E0EC59FF4F8081682B60839FBF0F90AE
:100B7000DF91CF910895CF93DF931F92CDB7DEB76A
:100B80008FB78983F89489810F90DF91CF91089571
:100B90008091CC03882319F081E08093E5050895C6
:100BA0000F931F93CF93DF93C091B105D091B205FE
:100BB00002DB9C018091B1059091B205C817D9075D
:100BC00099F7CE01A0E0B0E0BC0155274427C90148
:100BD000A0E0B0E08C019D01042B152B262B372BB8
:100BE000C901B801DF91CF911F910F910895CF9363
:100BF000DF938091B1059091B20501969093B20573
:100C00008093B105B8DFD82FE091CB03EF3FF1F02F
:100C1000CAE0CE9FF0011124ED54FA4F8185811175
:100C200015C080819181A281B3812091B10530915D
:100C3000B2052A173B0751F401DBE091CB03CE9FAD
:100C4000F0011124ED54FA4F81E08187DFBFDF917D
:100C5000CF910895CF92DF92EF92FF920F931F935F
:100C6000CF93DF938F3F61F1C82F9ADF2AE0C29FB5
:100C7000E0011124CD54DA4F088119812A813B818A
:100C800068017901C61AD70AE80AF90AD701C6012C
:100C90002FEFC216D206E2062FE7F20668F4298586
:100CA000211117C0C114D10421E0E206F10488F437
:100CB000C5DA81E089870DC081E08093E50509C030
:100CC000DF91CF911F910F91FF90EF90DF90CF9028
:100CD0009ACADF91CF911F910F91FF90EF90DF9013
:100CE000CF9008958091E5058823B1F11092E50534
:100CF0002091CC03222381F18091CA03A091C903E2
:100D0000E091CB038F3F39F4AF3F29F4E093C9035F
:100D1000E093CA030AC08AE0A89FD0011124AD5411
:100D2000BA4F1896EC93E093C9039AE09E9FF001A6
:100D30001124ED54FA4F80858093CB03E091C903D1
:100D40009E9FF0011124ED54FA4F9FEF9087920F70
:100D50009093CC0391117ECF08951092CC03109202
:100D6000E5051092B2051092B1058FEF8093CB0389
:100D70008093CA038093C903E3EBF5E08087158273
:100D800014823A9695E0E53EF907C1F71092C80340
:100D900087EF95E011DB88EC95E013DBC4CA1F9365
:100DA000CF93DF93E8DEC82F9DDFCFBFDAE01FEFE0
:100DB000C091CA03CF3F51F1DEDEDC9FD001112488
:100DC000AD54BA4F18969C9118971496ED91FC91DA
:100DD000159716962D913C91179718961C93189776
:100DE00015961C921E92149717961C921E92169797
:100DF00019961C929093CA039F3F11F49093C903D4
:100E00008FBF3097A9F2C9011995D2CFDF91CF9149
:100E10001F91089580E00895C2CFCF93DF938DECAA
:100E200093E0ABD0C2EDD3E08EED93E0998388835D
:100E3000BE018DEC93E0A8D089E694E09D838C837D
:100E400066ED73E08DEC93E09FD084EF94E099879A
:100E500088876AED73E08DEC93E0DF91CF9194C0C9
:100E600060E070E08DEC93E0B4C0009721F0BC012D
:100E70008DEC93E089C008958F929F92AF92BF92BC
:100E8000CF92DF92EF92FF920F931F93CF93DF9356
:100E90001F92CDB7DEB72FB72983F894A980DC0164
:100EA00014962C91211103C000E010E056C06A0195
:100EB000B62E7C01FC0100811181452BB1F0480167
:100EC0000115110589F3D60112966D917C91139746
:100ED000ED91FC91D8018D919C911995811109C0DA
:100EE0004801F80102811381EBCF0115110551F47E
:100EF000DBCFB11032C0D7018D919C910817190733
:100F000059F403C0611129C04801F801828193811D
:100F1000D7018D939C9308C0F80182819381D401FD
:100F200013969C938E931297F701828193810817F1
:100F3000190711F493828282D70114968C91149729
:100F4000815014968C9314978D919C911197892BB5
:100F500021F413961C921E921297AFBEC8010F90F7
:100F6000DF91CF911F910F91FF90EF90DF90CF9085
:100F7000BF90AF909F908F900895FC0111821082D6
:100F80001382128214820895CF93DF931F92CDB7FC
:100F9000DEB7FC018FB78983F89499818481811130
:100FA00003C07183608306C0A281B38113967C93D2
:100FB0006E93129773836283DB0113961C921E92C9
:100FC000129784818F5F84839FBF0F90DF91CF91B1
:100FD0000895AB0160E050CF04C0615071098109F0
:100FE00091096115710581059105B9F70895CF93B0
:100FF000809141018F71883091F481E080934F019D
:1010000089E080934201C3E080914F0180FD07C0D9
:1010100063E970E080E090E0DFDFC150A9F7CF9195
:1010200008951F93CF93DF931F92CDB7DEB7182F8C
:1010300080910D068F3051F51F3009F415C11092C3
:10104000110687EF9BE092D28FB78983F89499813C
:101050007894809139018D7F8093390180911106B8
:101060008823E1F39FBF8FEF80934F0188E4809343
:101070004E0180914D01846080934D01183011F034
:10108000133021F488E080930D06EEC0812F90E0AC
:10109000FC013397E731F10508F0DFC08827E656F9
:1010A000FF4F8F4F0C948F1483E080934201809107
:1010B0004D018B7F80934D010E940F1580936D0130
:1010C00080916E019770887F982B90936E018FEFBF
:1010D00080934F0180E880934E0162E070E080E0F1
:1010E00090E07ADF809139018260809339016FE26C
:1010F00070E080E090E070DF8FE080930D06B4C078
:1011000080910D06883009F4A8C088E080934201E0
:1011100062E070E080E090E05FDF9FC080910D06AC
:10112000883009F49AC083E08093420162E070E065
:1011300080E090E051DF91C080910D068830F1F0A1
:1011400020F4863009F089C005C0863119F0893154
:1011500009F083C089E08093420162E070E080E0A2
:1011600090E03ADF7AC080910D06883039F08930FE
:1011700009F473C084E0809342016FC038DF6DC012
:1011800080910D06893059F028F4883009F065C047
:101190002EDF05C0863119F0893109F05EC086E086
:1011A0008093420162E070E080E090E015DF55C07E
:1011B00080910D06883051F018F4863089F04DC0CA
:1011C0008930E9F0893109F048C019C010DF86E1A3
:1011D0008093420162E070E080E090E0FDDE3DC07F
:1011E00089E08093420162E070E080E090E0F4DE0C
:1011F000809141018F7180930D068930A9F586E1B8
:101200008093420162E070E080E090E0E5DE25C07E
:1012100080910D068830C1F018F4863029F01DC089
:10122000893099F08631C9F489E08093420162E007
:1012300070E080E090E0D0DE809141018F7180937A
:101240000D06893089F401C0D2DE89E18093420124
:1012500062E070E080E090E0BFDE809141018F713C
:1012600080930D068F31C9F30F90DF91CF911F91BD
:1012700008958091E605882349F180911206811135
:1012800025C080917F0590918005892B31F48BE8F2
:10129000E7DD9093800580937F0580917F05909195
:1012A0008005892B99F01092E60580914C018F778B
:1012B00080934C0163E070E080E090E08DDE8091EF
:1012C0004C01806880934C0186E1ABDE8091EB0598
:1012D000882341F060E070E087EE95E07ADE0097C9
:1012E00009F0BAD480911206823009F411C508952C
:1012F00004C0615071098109910961157105810569
:101300009105B9F70895CF93809139018D7F80932E
:10131000390161E471E080E090E0EADF8091390119
:101320008E7F8093390162E070E080E090E0E0DF42
:1013300080913901816080933901CBE066E870E0EB
:1013400080E090E0D5DF809141018F71C15031F094
:101350008830A1F780930D0680E001C085E8CF9129
:1013600008950E940F1580936D01EEE6F1E08081F3
:101370009770887F982B9083808180628083ECE4D3
:10138000F1E080818068808388E480934E018FEF54
:1013900080935601EDE4F1E080818C7F8260808350
:1013A000AAE4B1E08C91807F83608C938081886017
:1013B000808380818460808308951F93CF93DF931F
:1013C00086E02FDE8630E1F7809155018F7780939C
:1013D000550110924E0118E0C0E0D0E02091460186
:1013E000CC0FDD1FCC0FDD1F922F9076292F30E020
:1013F00095E0359527959A95E1F7C22BD32B62E0BE
:1014000070E080E090E074DF115041F783E009DE86
:101410008FEF80934F0188E480934E01CE01DF91DE
:10142000CF911F910C941215EF92FF920F931F937F
:10143000CF9314BE80E18093350180933401809373
:10144000330180933201E6DC81117EC060E481E0EB
:1014500063DB80913901816080933901809139018A
:101460008D7F809339016BEF71E080E090E040DF89
:10147000809139018E7F8093390162E070E080E0D5
:1014800090E036DF80913901816080933901CBE0B3
:1014900066E870E080E090E02BDF809141018F7181
:1014A000C15009F451C0883099F780930D0680919E
:1014B0005C01843909F048C026DFC82F811144C07F
:1014C0007CDF4FDFB9D1FDD1109212061092E605F4
:1014D00086EFE82E85E0F82E2091EE053091EF059D
:1014E0004091F0055091F1056091F2057091F3057E
:1014F0008091F4059091F505AFEF0E94A114ADEF36
:101500000E94AD1461F058F00EEE15E00E940F1528
:10151000F80181938F01EE16FF06C1F7DDCF85ED4F
:101520009BE01FD086EE9BE017D087EF9BE01ED09C
:1015300074DC8BE895DC9093800580937F0587EEC3
:1015400095E01BDD58D501C0C5E88C2FCF911F91C8
:101550000F91FF90EF9008959093880580938705F1
:10156000089590938605809385050895909382054C
:101570008093810508951F920F920FB60F92112448
:101580000BB60F922F933F934F935F936F937F937D
:101590008F939F93AF93BF93EF93FF93E091870552
:1015A000F09188051995FF91EF91BF91AF919F91AF
:1015B0008F917F916F915F914F913F912F910F90FC
:1015C0000BBE0F900FBE0F901F9018951F920F9299
:1015D0000FB60F9211240BB60F922F933F934F9398
:1015E0005F936F937F938F939F93AF93BF93EF938B
:1015F000FF93E0918505F09186051995FF91EF9194
:10160000BF91AF919F918F917F916F915F914F911A
:101610003F912F910F900BBE0F900FBE0F901F9018
:1016200018951F920F920FB60F9211240BB60F92BE
:101630002F933F934F935F936F937F938F939F93DA
:10164000AF93BF93EF93FF93E0918305F0918405EF
:101650001995FF91EF91BF91AF919F918F917F91DC
:101660006F915F914F913F912F910F900BBE0F9013
:101670000FBE0F901F9018951F920F920FB60F92EA
:1016800011240BB60F922F933F934F935F936F9359
:101690007F938F939F93AF93BF93EF93FF93E091CB
:1016A0008105F09182051995FF91EF91BF91AF915E
:1016B0009F918F917F916F915F914F913F912F916A
:1016C0000F900BBE0F900FBE0F901F9018951F929A
:1016D0000F920FB60F9211240F900FBE0F901F9014
:1016E00018951F920F920FB60F9211240F900FBEF4
:1016F0000F901F9018951F920F920FB60F92112402
:101700000F900FBE0F901F9018951F920F920FB65B
:101710000F9211240F900FBE0F901F9018951F92DB
:101720000F920FB60F9211240F900FBE0F901F90C3
:1017300018951F920F920FB60F9211240F900FBEA3
:101740000F901F9018951F920F920FB60F921124B1
:101750000F900FBE0F901F9018951F920F920FB60B
:101760000F9211240F900FBE0F901F9018951F928B
:101770000F920FB60F9211240F900FBE0F901F9073
:1017800018951F920F920FB60F9211240F900FBE53
:101790000F901F9018951F920F920FB60F92112461
:1017A0000F900FBE0F901F9018951F93CF93DF934C
:1017B0001F92CDB7DEB78FB78983F8941981E4D132
:1017C0001FBF0F90DF91CF911F9108951F93CF936B
:1017D000DF931F92CDB7DEB78FB78983F894198155
:1017E00053D31FBF0F90DF91CF911F91089581E0D8
:1017F000809311060895982F85FD02C09F7303C042
:1018000091959F719195E2E6F1E0249129172CF0D2
:10181000E1E7F1E0249192176CF48491803E3CF072
:1018200080323CF487FF06C08F71806203C080E283
:1018300001C08FE180680895CF93DF93CEEED5E0AD
:1018400084E08C8B83E08D8B2FEF3FEF3F872E87DB
:101850003D872C879BE09B8B188E40E058EF6FEF05
:1018600077E0488759876A877B872AE031E0398BA0
:10187000288B9AE0998F92E09A8F95E09B8F8C8FBE
:1018800084E8B9DF8F8B81E08A8B1E8ADF91CF914C
:101890000895982F85FD02C09F7303C091959F7195
:1018A0009195E2E6F1E080E02491921724F0291767
:1018B0003CF4815008958F5F31968031A9F780E024
:1018C00008958091FC05809362018091FD058093CD
:1018D0006301E4E6F1E0AEEEB5E08D918193EC3684
:1018E00031E0F307D1F78091FA0580936001809190
:1018F000FB0580936101809148012091000690E2F0
:10190000299F9001112420768F79822B80934801A2
:1019100080916F01909103069F70807F892B809347
:101920006F0180916E019091040690FB83F9809382
:101930006E0120916F019091090630E1939FC001E3
:101940001124922F9F70892B80936F018091480101
:10195000909101069F71807E892B80934801809130
:10196000050697DF90914501907F8F70892B8093BA
:1019700045010895CF93DF93FB018E3439F089350B
:1019800051F4808180930A0680E0FAC080818093C0
:10199000020680E0F5C020910D062F3009F4E9C061
:1019A0008B3009F4DBC080F4EB01823009F4AEC067
:1019B00020F4882309F460C0DEC0833009F4B6C087
:1019C000843009F485C0D7C0833509F449C088F450
:1019D0008F3491F1803509F0CEC090818181909350
:1019E000FC058093FD05909362018093630180E084
:1019F000C7C0873509F474C0803F09F0BCC070814E
:101A000061815281438134812581968187817093E0
:101A1000EE056093EF055093F0054093F105309388
:101A2000F2052093F3059093F4058093F505E4E621
:101A3000F1E0AEEEB5E08BC090819093030680910B
:101A40000906891710F48093030680916F01909125
:101A500003069F70807F892B80936F0180E090C088
:101A6000908181819093FA058093FB0590936001AA
:101A70008093610180E084C08091120681117DC055
:101A800080E098EFAFEFB7E0008004C0B695A7956F
:101A9000979587950A94D2F780FF71C0283031F06E
:101AA00088E0BFDA8830E1F726E101C028E08881CC
:101AB0008093010690914801907E8F71892B8093CD
:101AC0004801283009F441C086E1ABDA80E058C013
:101AD00080911206811151C08081811150C035C0A2
:101AE00090819093090680910306981710F49093C3
:101AF000030680916F01282F2F7030E1939FC00162
:101B00001124822B80936F0180E03AC08081809302
:101B1000050671DE80930506BCDE90914501907F3D
:101B20008F70892B8093450180E02AC0808180934B
:101B300000062091480130E2839FC0011124807685
:101B4000922F9F79892B8093480180E019C08D9155
:101B50008193EC3681E0F807D1F7F7CF908190932D
:101B6000040680916E0190FB83F980936E0180E002
:101B700007C081E805C084EF03C086E801C088EE95
:101B8000DF91CF9108950895CF92DF92EF92FF9267
:101B90000F931F93CF93DF93E0917F05F091800522
:101BA000309761F480914C018F7780934C01EBDF8B
:101BB00080914C01806880934C0145C0C0904701E2
:101BC000D0907B01D7FC3FC0E080F18082E08D0D9A
:101BD000EBE8F0E0E81BF109E701CE0FDF1F0D2D68
:101BE00010E0A8014F5F5F4F60E871E0CE0125D79C
:101BF000FE01D292D7011896FC93EE931797E00F4F
:101C0000F11FC28260917F057091800587EE95E09B
:101C1000BBD98BE825D99093800580937F05892BCC
:101C200021F481E08093E6050BC080914C018F7711
:101C300080934C01A8DF80914C01806880934C0117
:101C400080E480934F01DF91CF911F910F91FF901E
:101C5000EF90DF90CF9008950F931F93CF93DF9372
:101C60008C01FC01C081D181AF81B8858C918093BA
:101C70000E06E82FF0E03196EA0FFB1F20819181DC
:101C80009D3320F4911103C091E001C09CE32295A3
:101C90002695269523708FEF289F90011124929FFF
:101CA000A001939F500D1124CA0164EB70E0EED5A2
:101CB00060831A830983CE01DF91CF911F910F9129
:101CC000CBC590911206911116C0883029F4A9D97C
:101CD0001092E60588E0089580917F059091800537
:101CE000892B21F086E19DD986E0089581E08093DB
:101CF000E60586E0089586E8089504C061507109FC
:101D0000810991096115710581059105B9F708955A
:101D100010921206E0918905E83028F4F0E0ED5EBB
:101D2000FD4F808101C085E86091EC057091ED0563
:101D300091C51F93CF93DF931F92CDB7DEB7182FB6
:101D40006623E1F020916C0190910A0630E1939FA7
:101D5000C0011124922F9F70892B80936C01123047
:101D6000D0F490916C0180910206880F8E70917F63
:101D7000892B80936C0110926F0122C080916C01BD
:101D80008F7080936C01123030F480916C018E6002
:101D900080936C0115C080910906E0E18E9FC0011F
:101DA000112490910306892B80936F0190916C010F
:101DB00080910206880F8E70917F892B80936C0131
:101DC00089E12FD98931E1F71130A1F480910E0614
:101DD000833140F061E073E080E090E08EDF1092AC
:101DE0000E060DC06BEA70E080E090E086DF109296
:101DF0000E0605C06CE070E080E090E07EDF8FB7FB
:101E00008983F89419818091390182608093390126
:101E100000000000809139018D7F8093390160912D
:101E20000F0670911006FB01408150E041505109AE
:101E300080E891E002D681E0809312061FBF0F90E8
:101E4000DF91CF911F910895FC01962F809112068A
:101E5000811116C0F093ED05E093EC050780F08545
:101E6000E02DF0931006E0930F068081815080935F
:101E70000E06EF2B39F0642F892F5BDF80E0089589
:101E800086E8089588EE0895CF93C0911206C13078
:101E9000C1F480914201829586958770809389056F
:101EA00082E08093120680917F0590918005892BB6
:101EB00029F489E0B6D8C093E60503C086E1CF9146
:101EC000B0C8CF910895882351F180914D018C7F46
:101ED00080934D0180914D01886080934D018091E8
:101EE0004A01807F836080934A0180914D01846024
:101EF00080934D0180914D01837011F085E8089524
:101F000080914D0183FFFACF80914D0182FFF6CF82
:101F100080914A018F70833089F780E00895809125
:101F20004D01877F80934D0180914A01807F8760BA
:101F300080934A0180914D01846080934D0161300E
:101F400041F480914D018C7F816080934D0185E843
:101F500017C0623041F480914D018C7F8260809384
:101F60004D0185E80DC0662311F0633041F4809186
:101F70004D018C7F80934D0185E860E001C088EEC3
:101F800020914D01237030E070E02617370709F0EB
:101F9000B5CF90914D0193FDB1CF90914D0192FD40
:101FA000ADCF90914A019F70933009F4B6CF089558
:101FB000FC018081803D2CF08FEC80938A056FE0DE
:101FC00012C0873A2CF486EA80938A0560E00BC041
:101FD00080938A05082E000C990B865A9F4F63E068
:101FE00070E068D46F5F80915501807F682B6093AB
:101FF000550180E0089586EA80938A058AE895E095
:10200000D7DF61E080E00E948C0560E180E00E9403
:102010008C0580E008950C949A010C94D201B19A39
:102020000895EFE6F0E080818D7F80830895EFE6EC
:10203000F0E0808181608083089580918400909198
:1020400085000895EEDFEBCFEADFEFE6F0E0808178
:10205000826080830895EBDFB09A089580E890E075
:1020600057C3E9E8F0E02081922B9083E8E8F0E0A4
:102070009081892B80830895CF93DF931F92CDB7F2
:10208000DEB78FB78983F89489810F90DF91CF9164
:1020900008958FBF089580E890E0E3D26BE070E18F
:1020A00080E890E08CD3C3DF6DE070E180E890E0E1
:1020B000A6D3B7DFE1E8F0E080818160808388E02B
:1020C00008951F920F920FB60F9211240BB60F9224
:1020D0002F933F934F935F936F937F938F939F9330
:1020E000AF93BF93EF93FF93E091A905F091AA05F9
:1020F000309709F01995FF91EF91BF91AF919F91A2
:102100008F917F916F915F914F913F912F910F90A0
:102110000BBE0F900FBE0F901F9018951F920F923D
:102120000FB60F9211240BB60F922F933F934F933C
:102130005F936F937F938F939F93AF93BF93EF932F
:10214000FF93E091A705F091A805309709F0199544
:10215000FF91EF91BF91AF919F918F917F916F917F
:102160005F914F913F912F910F900BBE0F900FBE3B
:102170000F901F9018951F920F920FB60F92112477
:102180000BB60F922F933F934F935F936F937F9371
:102190008F939F93AF93BF93EF93FF93E091A50528
:1021A000F091A605309709F01995FF91EF91BF9135
:1021B000AF919F918F917F916F915F914F913F91DF
:1021C0002F910F900BBE0F900FBE0F901F90189580
:1021D0001F920F920FB60F9211240BB60F922F93EE
:1021E0003F934F935F936F937F938F939F93AF939F
:1021F000BF93EF93FF93E091A305F091A40530976F
:1022000009F01995FF91EF91BF91AF919F918F9137
:102210007F916F915F914F913F912F910F900BBEE6
:102220000F900FBE0F901F9018951F920F920FB630
:102230000F9211240BB60F922F933F934F935F93FE
:102240006F937F938F939F93AF93BF93EF93FF937E
:10225000E091A105F091A205309709F01995FF9141
:10226000EF91BF91AF919F918F917F916F915F910E
:102270004F913F912F910F900BBE0F900FBE0F907B
:102280001F9018951F920F920FB60F9211240BB644
:102290000F922F933F934F935F936F937F938F93FF
:1022A0009F93AF93BF93EF93FF93E0919F05F091BE
:1022B000A005309709F01995FF91EF91BF91AF916B
:1022C0009F918F917F916F915F914F913F912F914E
:1022D0000F900BBE0F900FBE0F901F9018951F927E
:1022E0000F920FB60F9211240BB60F922F933F93BC
:1022F0004F935F936F937F938F939F93AF93BF930E
:10230000EF93FF93E0919D05F0919E05309709F0C2
:102310001995FF91EF91BF91AF919F918F917F910F
:102320006F915F914F913F912F910F900BBE0F9046
:102330000FBE0F901F9018951F920F920FB60F921D
:1023400011240BB60F922F933F934F935F936F938C
:102350007F938F939F93AF93BF93EF93FF93E091FE
:102360009B05F0919C05309709F01995FF91EF912D
:10237000BF91AF919F918F917F916F915F914F919D
:102380003F912F910F900BBE0F900FBE0F901F909B
:1023900018951F920F920FB60F9211240BB60F9241
:1023A0002F933F934F935F936F937F938F939F935D
:1023B000AF93BF93EF93FF93E0919905F0919A0546
:1023C000309709F01995FF91EF91BF91AF919F91CF
:1023D0008F917F916F915F914F913F912F910F90CE
:1023E0000BBE0F900FBE0F901F9018951F920F926B
:1023F0000FB60F9211240BB60F922F933F934F936A
:102400005F936F937F938F939F93AF93BF93EF935C
:10241000FF93E0919705F0919805309709F0199591
:10242000FF91EF91BF91AF919F918F917F916F91AC
:102430005F914F913F912F910F900BBE0F900FBE68
:102440000F901F9018951F920F920FB60F921124A4
:102450000BB60F922F933F934F935F936F937F939E
:102460008F939F93AF93BF93EF93FF93E091950565
:10247000F0919605309709F01995FF91EF91BF9172
:10248000AF919F918F917F916F915F914F913F910C
:102490002F910F900BBE0F900FBE0F901F901895AD
:1024A0001F920F920FB60F9211240BB60F922F931B
:1024B0003F934F935F936F937F938F939F93AF93CC
:1024C000BF93EF93FF93E0919305F09194053097BC
:1024D00009F01995FF91EF91BF91AF919F918F9165
:1024E0007F916F915F914F913F912F910F900BBE14
:1024F0000F900FBE0F901F9018951F920F920FB65E
:102500000F9211240BB60F922F933F934F935F932B
:102510006F937F938F939F93AF93BF93EF93FF93AB
:10252000E0919105F0919205309709F01995FF918E
:10253000EF91BF91AF919F918F917F916F915F913B
:102540004F913F912F910F900BBE0F900FBE0F90A8
:102550001F9018951F920F920FB60F9211240BB671
:102560000F922F933F934F935F936F937F938F932C
:102570009F93AF93BF93EF93FF93E0918F05F091FB
:102580009005309709F01995FF91EF91BF91AF91A8
:102590009F918F917F916F915F914F913F912F917B
:1025A0000F900BBE0F900FBE0F901F9018951F92AB
:1025B0000F920FB60F9211240BB60F922F933F93E9
:1025C0004F935F936F937F938F939F93AF93BF933B
:1025D000EF93FF93E0918D05F0918E05309709F010
:1025E0001995FF91EF91BF91AF919F918F917F913D
:1025F0006F915F914F913F912F910F900BBE0F9074
:102600000FBE0F901F9018951F920F920FB60F924A
:1026100011240BB60F922F933F934F935F936F93B9
:102620007F938F939F93AF93BF93EF93FF93E0912B
:102630008B05F0918C05309709F01995FF91EF917A
:10264000BF91AF919F918F917F916F915F914F91CA
:102650003F912F910F900BBE0F900FBE0F901F90C8
:1026600018951F93CF93DF931F92CDB7DEB72FB787
:102670002983F8941981009709F444C0883791059B
:1026800031F461E080E00E948C0560E104C0803C90
:10269000910519F462E080E033C08C34910511F4A7
:1026A00064E0F9CF8038910511F468E0F4CF843408
:1026B000910511F460E2EFCF803B910511F460E4E5
:1026C000EACF883B910511F460E8E5CF883C91059D
:1026D00011F461E014C08039910511F468E00FC075
:1026E000803A910511F460E10AC0803221E092073E
:1026F00011F460E204C08334914021F460E481E08D
:102700000E948C051FBF0F90DF91CF911F910895FC
:102710001F93CF93DF931F92CDB7DEB72FB72983D7
:10272000F8941981009709F444C08837910531F471
:1027300061E080E00E94A40560E104C0803C910556
:1027400019F462E080E033C08C34910511F464E048
:10275000F9CF8038910511F468E0F4CF8434910505
:1027600011F460E2EFCF803B910511F460E4EACF11
:10277000883B910511F460E8E5CF883C910511F4A0
:1027800061E014C08039910511F468E00FC0803A0F
:10279000910511F460E10AC0803221E0920711F442
:1027A00060E204C08334914021F460E481E00E943F
:1027B000A4051FBF0F90DF91CF911F91089580381E
:1027C000910529F47093AA056093A90508958039AD
:1027D000910529F47093A2056093A1050895803AAC
:1027E000910529F470939A056093990508958032B4
:1027F000914021F47093920560939105089580387B
:10280000910529F47093A8056093A7050895803970
:10281000910529F47093A00560939F050895803A6F
:10282000910529F470939805609397050895803277
:10283000914021F47093900560938F0508950E9454
:102840002E050E9470050E940C070E9439090E9403
:102850001A04F9CF0C945904CF93DF93EC010E9432
:102860004F0489819A81DF91CF910C943507DB0168
:102870008F939F935CD0BF91AF91A29F800D911DCC
:10288000A39F900DB29F900D11240895AA1BBB1B0E
:1028900051E107C0AA1FBB1FA617B70710F0A61B60
:1028A000B70B881F991F5A95A9F780959095BC0181
:1028B000CD01089597FB072E16F4009406D077FDFE
:1028C00008D0E4DF07FC05D03EF4909581959F4F3A
:1028D0000895709561957F4F0895A1E21A2EAA1B65
:1028E000BB1BFD010DC0AA1FBB1FEE1FFF1FA217C0
:1028F000B307E407F50720F0A21BB30BE40BF50BBD
:10290000661F771F881F991F1A9469F76095709545
:10291000809590959B01AC01BD01CF010895EE0F0C
:10292000FF1F881F8BBF0790F691E02D199421D0CF
:10293000A59F900DB49F900DA49F800D911D112413
:1029400008950024A7FD00942A0F301D401D501D3E
:10295000601D701D801D901D08950024A7FD00942A
:102960002A17300540055005600570058005900563
:102970000895A29FB001B39FC001A39F700D811D58
:102980001124911DB29F700D811D1124911D089578
:102990008F929F92AF92BF92CF92DF92EF92FF926F
:1029A000CF93DF93EC01688179818A819B816115E6
:1029B00071058105910521F464E279ED8BE597E0DD
:1029C0002DE133EF41E050E0CDD149015A019B01A7
:1029D000AC01A7EAB1E4ABDF6B017C01ACEEB4EF74
:1029E000A5019401DDD1DC01CB018C0D9D1DAE1D37
:1029F000BF1DB7FF03C00197A109B0488883998321
:102A0000AA83BB839F77DF91CF91FF90EF90DF90F8
:102A1000CF90BF90AF909F908F900895B9CF80E0F6
:102A200092E0B6CFA0E0B0E0809300029093010264
:102A3000A0930202B09303020895FB01DC0102C0DF
:102A400001900D9241505040D8F708950F931F9375
:102A5000CF93DF93009731F46115710519F480E08D
:102A600090E039C08B01EC016EE070E081E090E015
:102A700037D0FC01892B99F380E883830115110578
:102A800071F01387028781E8838380911406909107
:102A90001506892B21F4F0931506E0931406209770
:102AA000C9F0D187C08783818260838380911606B5
:102AB00090911706892B71F4F0931706E093160690
:102AC0008091180690911906892B21F4F09319062C
:102AD000E0931806CF01DF91CF911F910F910895D8
:102AE0000F931F93CF93DF93869F8001879F100DD5
:102AF000969F100D1124C8010DD0EC01009721F014
:102B0000A80160E070E027D1CE01DF91CF911F9145
:102B10000F9108950F931F93CF93DF938230910508
:102B200010F482E090E0E0911C06F0911D0620E098
:102B300030E0A0E0B0E0309719F14081518102818E
:102B4000138148175907C8F08417950769F410973F
:102B500031F012960C93129713961C9327C0009392
:102B60001C0610931D0622C02115310519F04217CD
:102B7000530718F49A01BD01EF01DF01F801DBCF23
:102B800021153105F9F0281B390B2430310580F46B
:102B90008A819B816115710521F0FB0193838283FA
:102BA00004C090931D0680931C06FE01329644C01B
:102BB000FE01E20FF31F8193919322503109398373
:102BC00028833AC020911A0630911B06232B41F42A
:102BD000209106023091070230931B0620931A06BB
:102BE00020910402309105022115310541F42DB7E1
:102BF0003EB74091080250910902241B350BE09129
:102C00001A06F0911B06E217F307A0F42E1B3F0BE8
:102C10002817390778F0AC014E5F5F4F241735074E
:102C200048F04E0F5F1F50931B0640931A06819386
:102C3000919302C0E0E0F0E0CF01DF91CF911F91CE
:102C40000F910895CF93DF93009709F481C0FC01A1
:102C5000329713821282A0911C06B0911D06109724
:102C600081F420813181820F931F20911A063091C7
:102C70001B062817390751F5F0931B06E0931A0637
:102C800067C0ED0120E030E0CE17DF0740F44A8155
:102C90005B819E0141155105F1F0EA01F5CFD38327
:102CA000C28340815181840F951FC817D90759F4F9
:102CB00088819981840F951F0296918380838A81F0
:102CC0009B81938382832115310529F4F0931D069E
:102CD000E0931C063DC0E901FB83EA8349915991C9
:102CE000C40FD51FEC17FD0761F480819181840F1B
:102CF000951F0296E90199838883828193819B8342
:102D00008A83E0E0F0E012968D919C9113970097F2
:102D100019F0FD01DC01F7CF8D919C9111979D0178
:102D20002E5F3F4F820F931F20911A0630911B0692
:102D30002817390769F4309729F410921D0610926C
:102D40001C0602C013821282B0931B06A0931A06BF
:102D5000DF91CF910895DC0101C06D934150504047
:102D6000E0F70895052E97FB16F400940FD057FD59
:102D700005D0B3DD07FC02D046F408C0509540955D
:102D8000309521953F4F4F4F5F4F08959095809517
:102D9000709561957F4F8F4F9F4F0895B7FFC7CDB7
:0C2DA000C6DD821B930B0895F894FFCF52
:102DAC000100000000001E0620008025000003002A
:0C2DBC000001AB008785E185E9858500FA
:00000001FF
